:020000040000fa
:080000001c01040000000000d7
:020000040000fa
:1002000092290400000000004029040000000000c2
:1002100018330400000000007437040000000000e0
:10022000583e040000000000343f040000000000bd
:1002300010030400000000000f4721008079220015
:100240000001880000000000050007000c00070006
:1002500078270200000000000040da000000fe00e5
:100260004440a900400620000000e00003003200e6
:1002700000002000a00188004440a8000000060003
:10028000c01d25000100200016003700620040005c
:10029000e0804800910188009001ba0062004000af
:1002a000e0804800910188009002ba00620040009e
:1002b000e08048000002eb006028e10005003a0001
:1002c0008301e90007003300038009000059eb00b7
:1002d000040037006128e100010032000082eb00d9
:1002e00005000700910188001001ba000200e0003b
:1002f000e6ff3a00000005009101880080027800c6
:1003000062004000e08048003559ba008301e900ee
:10031000080032002559ba008301e90005003200c7
:100320000400e000f4ff320015d9ba008301e900af
:10033000f1ff3a0000000600889fbe0080047800ac
:1003400021908000010078000100e0000a003a00de
:10035000612021000612e2001c003200110078002a
:10036000908f5400140036008080e8001100e000f7
:10037000faff3a00150037001100e00006003200d5
:1003800011017800928f54000b0036008280e80043
:100390001100e000faff3a0010017800612021000e
:1003a00030908000820f5000080032001100780069
:1003b000908f540002003e000100780015003700c5
:1003c0008080e800910f1100f8ff3a00489080000b
:1003d000890f5400010031000904780008007800fa
:1003e000b4000700000178000000e00005003a00ba
:1003f0000000eb00890f5400060032000804d10011
:10040000f3ff370008197800020078004400070065
:10041000cbff37004f04be0000000600881f7800a5
:10042000630440000800a1000001eb00800f5400ad
:1004300022003600e30f540001003e004800200077
:1004400008007800bcff0700800078000001eb0086
:100450000000e000190032001001780092017800dd
:1004600064805100880f500003003100120090009a
:1004700080087800070037000800410080087800f5
:1004800012029000140098001100780008885100b2
:1004900008097800910078000100e00004003200b3
:1004a000110090008180e8000000e00001003a00a7
:1004b0008000eb00219088000281e80002007800b3
:1004c0004f04780000000600881f780000047800c0
:1004d0007290800050908000800f51000a0031001f
:1004e0008200d0000200e8007090880060908000d8
:1004f0006100780000000100729080005090800040
:10050000800f5100f6ff39006010210060908800d4
:100510002002200050908800080078000909070098
:100520000000e000360032000081e900120278008d
:10053000e30f5200320036000408a30030003a00f6
:10054000319080000100e00002003200810f510074
:100550000300310001087800329088001d00370048
:1005600081017800110090000000e00008003200d6
:10057000820f5000060031008001780010009000ca
:100580000000e00002003200820f5000faff390044
:100590009300780001804100800f5100180039005d
:1005a000820f500003003a00848940000301780064
:1005b00008003700930090000100e00003003200c3
:1005c00004004100808f50000d0039001101980097
:1005d00092019800920090000100e00008003200b3
:1005e0009201780003004100810f500004003a009e
:1005f0000432ef00108941001000900010019800b3
:1006000000000600800078001004e00002003200c4
:100610005104e000feff3a00008050000000060098
:10062000881f7800020478001400070008004000ca
:100630004f047800000006000000fa00881f7800d0
:10064000000478003fb99700ea81570080007800e5
:10065000003120001e000700800078000000e0004c
:10066000020035000040eb0000f478000100780043
:100670004f0478000080fa00000006008001780036
:100680000200e00003003200b15978000201e900e5
:10069000fdff3a0000000600800178000200e00043
:1006a00003003200815978000201e900fdff3a00a1
:1006b000000006000000e00003003400a908070065
:1006c000e10f400001003a000000eb0000000600ce
:1006d0006200fa00889fbe008a9fbe000004be0030
:1006e00002057800830078006a805700ad0007009b
:1006f000f88f9f0089979f000000eb00909f9f005c
:100700001a80fb008005fb000000ea00cf04de0039
:100710000904780050022000808f550001003a0043
:100720000904e9000800e0000c0034000f90970075
:10073000080178008a007800ff8997000300010013
:1007400080979f008080eb000000e0009000320066
:100750001f98970008004000909f9f0009054500e2
:1007600050022000808f5500040032000b00e00092
:10077000e3ff3a009f989700850037000000eb00e8
:10078000f0979f00e0979f00d0979f00c0979f0031
:10079000b0979f00a0979f00b09f9f00090037006f
:1007a000001d2100008050000000d000611d2100cc
:1007b00001004000bf98970090807000b19f9f009b
:1007c0000a05e8009a00fb00001d210077000700e1
:1007d000800078000000e000f1ff3a00a0c2b30002
:1007e0009a4f10000e003a003fb897000080e900d1
:1007f000b0bf9f0010007800a09f9f000000e000a5
:1008000005003d000000ea00a09f9f003f98970070
:100810000020a000b09f9f000a05e80011003700eb
:10082000a19f9f000b003700af989700f0ff2700b3
:10083000808f5000060032006a09b9001a00fb00e0
:100840000200400001fd2f0001004000a09f9f001a
:100850000a05e8001a00fb005c0007000000e00049
:10086000f1ff3a00e0c2b3009a4f100003003200db
:100870000080eb00809f9f001c003700a0c2b300e7
:10088000da4f100007003a003fb897000080e900f7
:10089000b0bf9f0010007800809f9f000a05e8000d
:1008a000120037000000eb00809f9f000b00370014
:1008b0008f989700f0ff2700808f500006003200cd
:1008c0006a09b9001a00fb000200400001fd2f0078
:1008d00001004000809f9f000a05e8001a00fb000d
:1008e0003a0007000000e000f1ff3a009a00fb0028
:1008f000202521002d0007008040eb000000e000d3
:1009000001003200ba407800817f9f0080c6b300aa
:1009100080cf500004003a009acf100002003a0045
:1009200066405000070037008f789700c0c6b300bc
:1009300080cf500005003a009acf100003003a0023
:1009400065404000807f9f000a05e800a0fb2f0063
:10095000008447003a41780088017800ea80570017
:1009600060f92f000f004000ec0007000000e000dd
:1009700006003a008800780060f92f000f00400060
:10098000180007000000e0005dff3d008080eb00e4
:10099000010078004f05be004f04be000080fa0041
:1009a00000000600010878000000060090cf10004b
:1009b000050032001004e00001003a0000000500cc
:1009c000d0cf1000fbff3a00000006000003b1008a
:1009d000030035009000b10001003c00100005004c
:1009e000000005000400fa00889fbe008a9fbe0038
:1009f0008c1f7800000478000106780070089000d1
:100a0000f80090000100500088089000010050009c
:100a10009808900001005000a808900001005000c4
:100a2000b808900001005000c808900081055000ef
:100a30000002220090bf9f0000032300a0bf9f0080
:100a4000081090000028a30018003a000b00e000f6
:100a5000160034000b0578008a047800e20f550078
:100a600001003600290020000900e0000c003400dd
:100a700058009000c801900009017800ee805700ee
:100a800003000100500498008080eb000000e000ab
:100a90009c0032006808900009004000600c98003b
:100aa000090555004240a900ebff3c007801900089
:100ab0000200e0000c00340058009000c8019000d3
:100ac0008c00780003000100500498008080eb0047
:100ad0000000e0008b00320068089000f8009000f1
:100ae00001004000600c9800080890000000e00041
:100af00016003400000578008a047800e20f5500e3
:100b000001003600290020000900e0000c0034003c
:100b100058009000c801900009017800ec8057004f
:100b200003000100500498008080eb000000e0000a
:100b3000740032006808900009004000600c9800c2
:100b4000090555004240a900ebff3c001809900040
:100b50000200e0000c003400e80090005800900013
:100b6000c801900003000100500498008080eb0051
:100b70000000e000630032006808900098089000d0
:100b800001004000600c9800280890000000e00080
:100b900016003400000578008a047800e20f550042
:100ba00001003600290020000900e0000c0034009c
:100bb00058009000c801900009017800ec805700af
:100bc00003000100500498008080eb000000e0006a
:100bd0004c0032006808900009004000600c98004a
:100be000090555004240a900ebff3c003809900080
:100bf0000200e0000e003400e800900018089000a9
:100c00008080400058009000c8019000030001005f
:100c1000500498008080eb000000e00039003200b2
:100c200068089000b808900001004000600c98002f
:100c3000480890000000e00016003400000578002d
:100c40008a047800e20f55000100360029002000d8
:100c50000900e0000c00340058009000c80190002a
:100c600009017800ec80570003000100500498004f
:100c70008080eb000000e000220032006808900055
:100c800009004000600c9800090555004240a90089
:100c9000ebff3c00081090000028a3001800320071
:100ca0000b00e000160034000b0578008a04780081
:100cb000e20f550001003600290020000900e00085
:100cc0000c00340058009000c80190000901780021
:100cd000ee80570003000100500498008080eb0074
:100ce0000000e000070032006808900009004000a2
:100cf000600c9800090555004240a900ebff3c003c
:100d00008000eb00010078004f0678004f05be0020
:100d10004f04be000080fa0000000600889fbe005d
:100d20008a1f7800000478000102780002457800ec
:100d3000830478000200fb00cf80de005002b10087
:100d40000180b10032052000820f5000e08f580072
:100d500095013e00006001008d01370092013700cf
:100d600091013700900137008f0137008e01370065
:100d70008d0137008c0137008b0137008a01370065
:100d80008901370088013700870137008601370065
:100d90008501370084013700830137008201370065
:100da00081013700800137007f0137007e01370065
:100db0007d0137007c0137007b0137007a01370065
:100dc0007901370078013700ed00370076013700f0
:100dd0007501370074013700e9003700e80037007b
:100de000e7003700700137006f0137006e013700f0
:100df0006d0137006c0137006b0137006a01370065
:100e00006901370068013700670137006601370064
:100e10004b0137006401370063013700620137007e
:100e200061013700800037005f0137005e01370045
:100e30005d0137005c0137005b0137005a01370064
:100e40005901370058013700cd00370056013700ef
:100e5000150037001c003700c9003700c8003700f4
:100e6000c700370050013700170037004e01370028
:100e70004d0137004c0137004b013700ec003700c3
:100e8000690037001f01370047013700460137006e
:100e90002b0137004401370063003700420137005f
:100ea00041013700600037006e01440012007800f5
:100eb000808141009480e900010a78000009e8007f
:100ec0009149780041013700a8609000c0c6b30086
:100ed00080cf50000a003a009400780064805000ef
:100ee000000a78001000be004f89de00cf91de00be
:100ef0000002be000203780082037800150037006c
:100f000010c7b30080cf500002003a0014017800ef
:100f10000400370014017800a0c6b30080cf500051
:100f200005003a0068005100000a78003002be0057
:100f30002003be00070037000280e900000a7800a5
:100f40001000780000027800cfa2de0005037800d0
:100f500086037800049cbe000694be00a860900042
:100f600080c6b30080cf50000f00320020c6b3000f
:100f700080cf500006003a00184078000000fb00c7
:100f8000cf80de0001017800820178000a0037007e
:100f900040c7b30080cf50000300320066404000dd
:100fa00080cf500006003a0018007800cf80de00a5
:100fb0000101780082017800009cbe000294be000e
:100fc0003800be002801be00e00f5000e08f58003e
:100fd000e00f5900e08f590004003d006e0144000d
:100fe00092007800d0c2b3000c00370008109000c7
:100ff0000018a300040032006e0144009200780043
:10100000b0c2b300050037000008a300570032004b
:101010006e0144009200780000c2b30080f47800b2
:101020000109e80051003700a8609000c0c6b30075
:1010300080cf500006003a00940078006480500091
:10104000000a78001002be006033b80015003700b7
:1010500010c7b30080cf500002003a00140178009e
:101060000400370014017800a0c6b30080cf500000
:1010700005003a0068005100000a78003002be0006
:101080002003be00070037000280e900000a780054
:101090001000780000027800050020000600200003
:1010a00007002000049cbe000694be00a8609000cb
:1010b00080c6b30080cf50000f00320020c6b300be
:1010c00080cf500006003a00184078000080fb00f6
:1010d0000100200002002000030020000a00370069
:1010e00040c7b30080cf500003003200664040008c
:1010f00080cf500006003a00180078000100200060
:101100000200200003002000009cbe000294be00ec
:10111000081090000038a300140032003800be0010
:101120002801be00e00f5000e08f5800e00f59008a
:10113000e08f59000d00320080c7b300804f55008a
:101140000300320080c5b300804f550007003a000d
:101150006e0044009000780002c3b30082f478006f
:101160008100e8008af478000108e8007800900027
:1011700000804400600498008a4078006d003700c9
:10118000a860900014017800c0c4b30080cf500064
:1011900005003a0068005100000a78005001be00c6
:1011a0004000be000400370064005100000a7800cf
:1011b0001000be00240b0700009cbe000294be007d
:1011c000380090000000e00004003d006e01440083
:1011d00092007800d0c2b3000c00370008109000d5
:1011e0000018a300040032006e0144009200780051
:1011f000b0c2b300050037000008a30005003200ac
:101200006e0144009200780000c2b30080f47800c0
:101210000109e80078009000008044006004980014
:101220008a4078000800780027010700670037002f
:10123000286090008000fb00c0062000808f5000d6
:10124000230032000a003c0064005000808f5000f0
:101250002600320004003c0066005000808f5000e1
:101260000b00320021003700a006200005003700e7
:1012700040072000808f50001c0032001b003c0003
:1012800063005000808f50000700320017003700c5
:101290001480e900000a780010007800485c900093
:1012a00008487800490037001480e900000a7800f7
:1012b0001002780068089000cf80de0001017800fd
:1012c00082017800009abe000292be003f00370003
:1012d0001480e900000a7800100178006808900086
:1012e000cf80de000089be00380037001480e9009e
:1012f000000a780010007800680c90000808780058
:10130000320037001480e900000a780010007800ed
:10131000cf80de000101780082017800009cbe00d1
:101320000294be00780090000080440060049800a1
:1013300081c7b300080078002800070023003700a9
:101340001480e900000a780010007800600498001a
:10135000580990000200e00002003d00a9fc0700cf
:10136000090037008000eb00ce0007008000780005
:101370000000e00003003200680090000080500090
:101380000100370058089000100c98000f0037003b
:101390006e0144009200780050c2b30080f17800e2
:1013a0000109e80009003700ee0044001100780050
:1013b000808144000a4278008008e8000a04e000c6
:1013c00001003a0054c2b300844978000000eb00e9
:1013d0004f0578004f04be00000006006f02b00009
:1013e000889fbe008a9fbe008c9fbe008e1f780023
:1013f00080067800f01b2100b0b79f0080c5b300c5
:1014000080cf500002003200e21a2100b2b79f00e4
:1014100083002000c3b79f00f0c6b30080cf500008
:101420000a0032006940400080cf500005003200c1
:10143000a4002000c4b79f0080c5b30080cf500037
:1014400002003a0000012000c0b79f008e0120007a
:101450003d04be002d05be0040c6b30080cf500045
:10146000030032006540400080cf50000a003a007f
:10147000e00f5400e08f5c00e00f5d00e08f5d0046
:1014800005003d000800be000a01be008d0a0700ed
:101490000205be000004be00e00f5400e08f5c00b7
:1014a000e00f5d00e08f5d0003003a005d089000f2
:1014b0000000e0000c0032007e012000cfb0970059
:1014c00001027800cfa2de000503780086037800d1
:1014d0000800be000a01be00100b07003fb29700d3
:1014e00064407800d0e79f004fb09700cf80de00c7
:1014f0000101780082017800d0b79f00e1b79f001a
:10150000f2b79f0083bf9f000203be000002be002f
:101510000800be000a01be00f90a0700809ebe0056
:101520008296be00e00f5000e08f5800e00f590097
:10153000e08f5900220034000e00e000200034004b
:101540003d00be002d01be005fb29700efb29700d4
:101550007fb397008fbb9700f40a07000205be0017
:101560000004be000e07e900e1fc2f008f80400060
:10157000010647005fb29700efb297007fb3970074
:101580008fbb97000800be000a01be009b0b07003e
:101590001d0010003fb19700624e7800889ebe008b
:1015a0008a96be00e00f5400e08f5c00e00f5d0003
:1015b000e08f5d00020034000e00e000e0ff3c0020
:1015c000cfb19700e88f510010003a000d10900045
:1015d0000038a3000d003200f70f570006003e0050
:1015e000e4fc2f000e024200e4c07f0000c3b30001
:1015f00080cf5000050032000e07e90000c3b300a1
:10160000e1fc2f008e80400080f07f007801170001
:10161000920e98006d009000e3fc2f008f81410036
:101620008e80410015fc07001d0e90005d089000a3
:10163000800f560006003d000c005000800e980000
:101640000d1090000040a100801698000f00370098
:101650000000e0000d003d000d10900074006000df
:10166000f00f500009003a007d089000fd00900046
:10167000010050008d089000010050000c07500040
:101680004240a900010034008e0e98004f077800f8
:101690004f06be004f05be004f04be006f02b100f2
:1016a000000006000200e0000500320090cf1000ac
:1016b000040032000000e8000201e900fbff3a00ec
:1016c0000000eb0000000600ef04b000889fbe00a1
:1016d0008a9fbe008c9fbe008e1f7800c0af9f0007
:1016e000a1df9f0060fa2f000f004000e0af9f00d5
:1016f000cfaa97005503be004502be0084af9f00ed
:1017000095af9f00a6af9f00b7af9f0010c6b30074
:1017100080cf50001600320010c4b30080cf5000bc
:10172000130032004fab9700560890000000e00015
:1017300003003d0060002000500b98000c003700b3
:101740000000e0000a003a0070c6b300afdb97006b
:1017500080cf53000300320070c4b30080cf530029
:1017600003003a0010002000cfa89700d00898008e
:10177000cfa89700e2fc2f00028047002902070053
:1017800080017800e20f500014003a00cfa99700c2
:10179000e3009000300020009009980010c6b300cc
:1017a0002fda9700804f52000a0032006440400058
:1017b000804f5200070032000040e800804f520086
:1017c00004003200022221000040e800804f520055
:1017d00017003a0042222100150037000000e00007
:1017e00018003400cfaa9700e500900030002000d8
:1017f000900a980010c6b3002fdb9700804f53006b
:101800000a00320064404000804f5300070032005d
:101810000040e800804f5300040032008222210083
:101820000040e800804f530001003a00c22221002e
:10183000b258780002007800b058780090487800dc
:10184000f201370014c6b300afdb970084cf53001a
:101850000300320010c4b30080cf530010003a00e0
:101860004fa89700ec0040001101780000c3b300be
:10187000005978008208e80080c7b300afd897000d
:1018800084cf50000100320080c5b30000497800c9
:101890004fa99700720090000080e8007001980046
:1018a0000300e00003003a008006eb00fda79f0064
:1018b000d001370011c6b300afd9970081cf5100d6
:1018c0000300320010c4b30080cf5100ad003a00d5
:1018d0000e2321002fda9700814f520001003200c1
:1018e0001e242100cfaa9700550890008006e8002a
:1018f0000000e00001003d001d0220000d06e80090
:101900004fab97003604be002605be006022b8002b
:101910006033b8000fa897009fa897002fa99700e1
:10192000bfa99700da0a07000000e00001003d00af
:101930000bf0a20088af9f0099af9f00aaaf9f0055
:10194000bbaf9f007fa0970064005000f0a79f00ee
:10195000efab9700805beb00e7af9f003f003700e5
:10196000c20120000300200001fd2f00018047007c
:10197000da0107000faa97009faa97002fab9700e4
:10198000bfab9700f4af9f0085b79f0096b79f004d
:10199000a7b79f000400be000601be00c10a0700f1
:1019a0000004be000005be00670656004240a900c4
:1019b0000c003400e70a07000002be000203be006c
:1019c0007fa897008fb097001fb19700afb1970025
:1019d000e30a070080af9f0091af9f00a2af9f0076
:1019e000b3af9f00efaa9700e7824200e5af9f00e8
:1019f00070002000e00f5400e08f5c000d00340008
:101a0000600020006fab97006f636500e6af9f003a
:101a1000cc5bdd004455de000a857300c4ddde00ca
:101a2000e00f5500e08f5d00020034000000e90087
:101a3000f4ff3b000000e90005003300efa8970029
:101a40008060eb00e1af9f000000e900fbff3b007e
:101a50006fa9970067014100e2af9f000c00e00012
:101a6000090034006022b8006033b8000fa8970066
:101a70009fa897002fa99700bfa99700ba0a07004f
:101a80000000e000b6ff3c00efa9970064fa2f00c9
:101a90000f024200048051000006e90075fa2f0091
:101aa00085824700e5af9f008d0f560001003d0085
:101ab0008c0678000d00e0002b0035008c8f56005e
:101ac00005003d006fab970066c07e00f2c0b3001a
:101ad000e74f500001003c000041eb008d00e900a1
:101ae000efab970067c07800824f500006003a00c5
:101af0008d06e9008100e900efa9970063c0780036
:101b0000824f5000faff3200ef4f510004003a00bc
:101b10006faa970064c078000040e80000f27800e7
:101b20000100e00007003d00efaa97008502e900f0
:101b3000e5af9f008d06e8007fa09700640040009d
:101b4000f0a79f008d00e900070033006fab9700fe
:101b500066c078000000fb006e40780000f378005b
:101b60008100e900f9ff3b00cfab970057089000d8
:101b70000000e0001f013d000d00e900d00b9800bf
:101b80001c0137000fac97009fac97002fad97005a
:101b9000bfad97006022b8006033b8000800be00f7
:101ba0000a01be003a0a07000000e00005003d00ff
:101bb0000bf0a20088af9f0099af9f00aaaf9f00d3
:101bc000bbaf9f007fa09700725927000280b90029
:101bd000026a280013002000680a0700e400500091
:101be000f1a79f001d003b0063801000c1ff2f0084
:101bf000010460000800ea00f0a79f008004eb00e9
:101c00000800e000470034000808a3000e0032007e
:101c10006848b800e20b2100020040003002be001c
:101c20002003be000fa897009fa897002fa9970038
:101c3000bfa99700600a070080af9f0091af9f0087
:101c4000a2af9f00b3af9f000884d1008904e800d1
:101c50000800e000ecff3c00320037000100e0002b
:101c6000300034006022b8000600200007ff230087
:101c7000b4b79f00c5b79f00d6b79f00e7b79f00d6
:101c8000c0ff2f0000806000f0a79f0000047800d4
:101c90008004eb00160034000808a3001000320096
:101ca0006848b800e50b2100050040003002be0086
:101cb0002003be003fb09700cfb097005fb1970000
:101cc000efb197003c0a07000002be000203be000d
:101cd000b4b79f00c5b79f00d6b79f00e7b79f0076
:101ce0000884d1008904e8000800e000eaff3c0015
:101cf0003fb29700cfb297005fb39700efb3970062
:101d00000fa897009fa897002fa99700bfa9970039
:101d10009e0a070080af9f0091af9f00a2af9f0077
:101d2000b3af9f004fab9700d608900060c6b300da
:101d3000afdb970080cf530004003200668740007d
:101d400060c4b30080cf530003003a007fa0970027
:101d5000008040006a074000f30f57000100340084
:101d60003e01200000c3b300efa897008058780020
:101d7000e1af9f003a0037000800be000a01be0034
:101d8000c80907000006be00f0b79f0081bf9f0092
:101d9000680757004240a9000e003400ed09070013
:101da0000002be000203be000800be000a01be0021
:101db000eb0907006022b80046782d00771924004f
:101dc000fd09070080af9f0091af9f00a2af9f0069
:101dd000b3af9f00efa99700e8814100e3af9f00f8
:101de00088002000e00f5600e08f5e0011003400f4
:101df00078002000a2002000030020007fb09700a0
:101e00008fb897002b0107006faa970005c3b30096
:101e100005624100e4af9f00f0b79f0081bf9f00c3
:101e2000e00f5000e08f5800020034000804e90081
:101e3000f0ff3b000804e9000600330000c3b300d4
:101e4000efab970080637800e7af9f000804e900dc
:101e5000faff3b006fa8970068004000e0af9f00ca
:101e60000e00e0000b0034000fac97009fac970011
:101e70002fad9700bfad97006022b8006033b80067
:101e80000800be000a01be00b70907000000e0001c
:101e9000b9ff3c00efa8970062fa2f000f01410044
:101ea000028050000007e90073fa2f008381470089
:101eb000e3af9f007fa0970067004000f0a79f005e
:101ec00001c3b30093cf10000a003a000e07e900e7
:101ed0007fa097000000e900f0a79f006faa97007d
:101ee0000402e800e4af9f0014427800814f5200e2
:101ef000f6ff3200cfaa9700d508900060c6b30065
:101f00002fdb9700804f53000300320060c4b30002
:101f1000804f530004003a007fa0970000804000eb
:101f20008006e8000a0037008001eb0050c6b300cd
:101f3000afdb970080cf53000300320050c4b300e2
:101f400080cf530001003a00130020008386400038
:101f50008d0f570001003d008e0678000d00e00057
:101f6000240035008e8f560006003d006fa89700b4
:101f7000e0c07e0092c3b30040c3b30080cf5000e6
:101f800001003c0002c3b3008d00e900efa99700f7
:101f900063c07800824f500006003a008d06e900c9
:101fa0008100e9006faa970064c07800824f50005a
:101fb000faff320090c3b300804f510004003a0092
:101fc000efaa970065c078000040e80080f2780032
:101fd0000100e00007003d006fab97000603e90039
:101fe000e6af9f008d06e8007fa097000000e800a4
:101ff000f0a79f007fa297008d0178006fa997003e
:10200000afd897004fa89700c10007004f0778008e
:102010004f06be004f05be004f04be00ef04b100e6
:1020200000000600889fbe0080047800010478004c
:10203000310090000000d0004501de00f07f20005c
:10204000800f510010003a00800ceb00310090002e
:102050006f00600008003a00210090000000e000de
:1020600005003a00110090000000e00002003a0074
:102070001100e000020032002000200015003700af
:1020800010002000130037000200e00005003c00b3
:1020900001007800cf010700000178000000e00097
:1020a0000a003c0038009000f100280001006000a8
:1020b00001fe2300010070003004980020c02f00b2
:1020c000800c41000080eb0002003700800ceb0028
:1020d0000000eb004f04be0000000600881f7800df
:1020e0008a9fbe00000478000205be003001900007
:1020f0000200d000c500de00f07f2000808f50007d
:102100000c003a006f00610008003a0028009000bf
:102110000000e00005003a00180090000000e00018
:1021200002003a001800e0001c00320020002000ed
:102130005d0037000100e00006003a00080078006a
:10214000a4010700800078000000eb000100e0001f
:1021500055003c006108b9000a0540008b85480025
:10216000e07f2000800f5500e08f5d000d003400ff
:10217000380090006022b8000600200007ff2f0002
:102180000000e000030035006022b80006002000d7
:1021900007ff2700049cbe000694be00100020002c
:1021a00041003700b8009000e00f5500e08f5d005f
:1021b00005003400f000280000806000c450dd00fd
:1021c00001007000360037000000280080826000a7
:1021d0006f8060000040a000300498006105550049
:1021e000e0855d00c0fc2f00f1ff2f00800f55003f
:1021f000818f5d0006003d00350498000000eb0073
:102200002004980010049800000ceb002600370012
:102210000a027800f00f45000b003c001800900007
:10222000000c7800280090001004980038009000fe
:10223000200498000000eb00300498007002420077
:10224000f00f4200f5ff34000402ea0012003200f1
:10225000180178000411de00f0011200180090004f
:102260008300dd00010c71000400de0028019000f5
:102270008310dd0001007000100498000411de00de
:10228000380090008301dd000301710022049800f2
:102290000400de0030049800380090000500700053
:1022a000300498000080eb004f05be004f0478001a
:1022b000000006000400fa00889fbe008a9fbe004e
:1022c0008c9fbe0080bf9f0091bf9f000206be0092
:1022d000aa0807000001be000004be000c00be00fa
:1022e000840907000fb997009fb9970000055100b6
:1022f000818559000800be000a01be004f06be00dd
:102300004f05be004f04be000080fa00000006002a
:102310000a00fa00889fbe008a9fbe008c9fbe0004
:102320000004780001457800820578008304780075
:10233000040678000300e00002003c0019002000c1
:10234000eb26210060c6b300804f55000e0032001e
:1023500060c4b300804f55000b00320070c6b3005c
:10236000804f55000300320070c4b300804f550009
:1023700083003a00e40f46008100350058089000c1
:10238000800f56007e003d000c06e80060c6b300da
:10239000804f55001000320060c4b300804f5500dc
:1023a0000d003200081090000038a30004003a002d
:1023b00058089000808f540001003d00590c98008f
:1023c000580890000c005000500c980002003b0090
:1023d0000000eb00500c98000c00e00027003c00cf
:1023e000f2014400130178006800900001c3b300bb
:1023f000017079000201e800820978005808900015
:102400000000e00003003c00081090000038a3002a
:1024100004003200e8009000e0c2b3008070790050
:102420008209e8000c00ea00d8089000808f500074
:1024300001003d000106ea000c00ea00200c9800b3
:102440000c804000500c9800890f500001003d00a6
:102450008004780068009000980890000100400017
:10246000390c9800090178008b00780083f8070088
:1024700058089000090050001a003700e80090004a
:10248000180890008c8f540018003d000080400018
:10249000090178008b00780078f807001808900090
:1024a00009014000120c980009005600200c980009
:1024b000580890000000e00003003c000810900065
:1024c0000038a30006003200e8009000e0c2b3002c
:1024d00080707900380890000000e800300c980007
:1024e00058089000400c9800a3003700008040007e
:1024f0000c0178008b00780060f807001808900045
:102500000c004000100c98008c8454005808900077
:102510000000e00003003c00081090000038a30019
:1025200006003200f2014400930078006801900038
:10253000e0c2b30000f178008109e800580890007b
:10254000890f500001003d00800478006800900071
:1025500098089000010040008c8045000901780037
:1025600046f807001808900009004000100c980079
:102570005808900009005000200c98007e00370099
:1025800070c6b300804f55000300320070c4b30022
:10259000804f550014003a0058089000808f540076
:1025a00004003d00081090000038a30001003a002c
:1025b000590c9800580890000000e900500c980051
:1025c00002003b000000eb00500c980051c6b30025
:1025d00070c6b300804f55000100320051c4b300f3
:1025e000014578000900370010c6b300804f550040
:1025f00002003a000ac7b3000400370010c4b30059
:10260000804f550001003a000ac5b300f2014400b2
:1026100013017800680090003b7079000201e80027
:1026200082097800580890000000e00003003c0098
:10263000081090000038a30004003200e800900069
:10264000e0c2b300807079008209e8005808900069
:102650000000e000100034008904e900890f5000f8
:1026600001003d0080047800680090009808900008
:1026700001004000090178008b007800fff7070097
:102680001808900009004000100c980058089000ad
:1026900009005000200c9800e800900018089000f5
:1026a000808540008a5d78008b06e8000c00e00021
:1026b00004003500b0c2b300804d78008d0578006d
:1026c00004003700d0c2b300804d78008d0578003b
:1026d0000c06ea008004eb000c00e0000900340066
:1026e000a10020000c0078008d00070076815400c6
:1026f00001f17f00000678008904e8000000e00096
:10270000f7ff3c00e18f540009003c0050c6b300c5
:10271000804f55000300320050c4b300804f550075
:1027200003003a0000c3b300805e78008d05780096
:102730000900e00002003a0000c3b300805d7800a9
:102740000900e000070034008904e900f680540025
:1027500061c07f0002c3b300825d40000900e00059
:10276000f9ff3c00680090009808900001004000cc
:1027700000805500300c9800081090007400600034
:10278000f00f50000e003a0078009000980890007a
:1027900001004000a808900001004000b808900027
:1027a00001004000c80890008100400078089000b7
:1027b000808f500002003d0001005000000c980086
:1027c0004f06be004f05be004f04be000080fa0059
:1027d0000000060000027800300090000100280090
:1027e00001036000150020006f00600030029800b7
:1027f00008003a00240090000000e00005003a00c4
:10280000140090000000e00002003a001400e00014
:102810003e003200340090000000e0000b003a005f
:1028200024009000300298001400900020029800cc
:102830001400780010029800000aeb00f0825200a9
:10284000340090000000e000f5ff320034009000fa
:10285000ef0f500014003e008001d000a400900053
:102860004f08de0080817100330298008100d000a3
:10287000140190004f10de0080807000210298004b
:102880000201d000940078004f08de0000017100c2
:1028900012029800010ad0008502e90003007800c6
:1028a000ef8f5100ecff3600b4019000ff8f510014
:1028b000130036001401d10014009000cf00dd0099
:1028c000010a71000000d100a40090004f09dd0052
:1028d00002007000100298008100d1004f18dd0046
:1028e00080807000210298000300d100300298001f
:1028f0008502e80080017800ff0f5000edff3e00e8
:10290000340090006f0060003002980034009000a6
:1029100006007000300298000500780000000600f4
:102920000101780000027800110009000200d800bf
:102930000002fd000491b900820250000400be00b4
:10294000000006000c02e20004003d000f42ab0054
:10295000020032000f02ab00feff32000040da003e
:10296000feff3700889fbe00800478001e12e20040
:1029700005003a000000eb00100007008080eb002b
:102980000000e0000a003500f89080008800780020
:102990000900e000060032000900440007000700bb
:1029a0008080eb000000e000010035008800780026
:1029b000010078004f04be0000000600800078008f
:1029c0000001eb000000e00003003a0000272100b6
:1029d000f09088000600370000472100808f5000eb
:1029e00002003e00f1908800010037000081eb00fa
:1029f000020078000000060003f0a200889fbe00dd
:102a00008a9fbe008c1f7800730207007a02330091
:102a10006450e1004f0032006420e10052003200b7
:102a200003826c0007003b000905d0000306d000bc
:102a3000820f54000c065d000200390002003200d3
:102a400089017800030678008582550004003d0066
:102a50000003fd008103fd008502ea008b85420032
:102a6000840f720002003b0060001000e08018003c
:102a70006011b8000005eb007a28e1000a00390077
:102a800006007800c75ddd00f707b200878075009b
:102a90002d003700828171000a0178006105600015
:102aa0008180d1000080d3008502e900f9ff3b005e
:102ab000060440008784480002003b0060041400c4
:102ac000e0841c000988a300070032008a8171009d
:102ad00082817100610164008904d1000884d300ff
:102ae0008b05e800170037000978a30013003a00af
:102af0000b00e000130034008b05e90008044400db
:102b000089844c000a4474000978a3000d003a003f
:102b10000b00e000070034008b05e90008044400c6
:102b200089844c0001003a000b0020000978a300c2
:102b3000f7ff32000001eb000200370082817100d4
:102b40000a0178003c0207000cf0a70001f0a00089
:102b5000320237006420e10002003a00838f6c00eb
:102b6000320233000801be000200be002b02370013
:102b7000889fbe008a9fbe008c1f78001602070047
:102b80001d02330003866c006450e1002400320013
:102b90006420e100270032006150e1002200320091
:102ba0006120e100210032008b854200eb07b1007b
:102bb0000134b800003ab8000804420089844a0091
:102bc000013ab8000030b8008880400009014a008e
:102bd00004003300000040008180480002014900e9
:102be0008b05e900c909dd00830170000100320096
:102bf00013002000c814de004814dd004709de0081
:102c00001200b200c808de00088470000a02070043
:102c100001f0a1000cf0a70001f0a000ff013700b7
:102c20006120e100010232000801be000200be0086
:102c3000f7ff37006150e100fcff3a00fb0137006d
:102c4000889fbe008a9fbe00010578000100e00059
:102c50000400350008003c000000e00020003200c5
:102c60000500370060001000e080180002003b0003
:102c700001f02c001a0037000004be006011b800fb
:102c80006b0920000982cf00020039000882cf00c2
:102c90000441b000694252000e00320008003b00bf
:102ca00082817100610164008904d1000884d3002d
:102cb0008b05e8000442e800f9ff3a000500370000
:102cc0000804440089844c008b05e9000442e900b3
:102cd000fbff3a00d80107000af0a70001f0a000ae
:102ce0004f05be004f04be0000000600889fbe00d6
:102cf0008a9fbe008c1f7800b7010700be01330019
:102d000003866c006450e1002e0032006420e10074
:102d1000330032006150e1002f0032006120e100f9
:102d20003100320085855500eb07b0000900200016
:102d300008042000050037000804440089844c0082
:102d40000a0031000603430087834b000001530053
:102d500081815b00f8ff33000203be000800a00081
:102d60000804440089844c00f6ff3900c639dd00b0
:102d70008301730001003200130020008904d10098
:102d80000884d3000998a300050032000800a700ba
:102d90000300a0008904d1000884d3008b05e8005b
:102da0008904d1000884d3000001eb000281d20025
:102db000a101070001f0a1000cf0a70001f0a000a4
:102dc000960137006420e100980132000801be003e
:102dd0000200be00f7ff37006120e10093013200de
:102de0006000b800f3ff37000000200001f8270062
:102df000f0ff37000001eb00b50137000081eb0068
:102e0000b3013700f4ff2f001a023700140020002e
:102e100018023700889fbe008a9fbe008c1f780072
:102e20000004be002e0207000478a30026003a002a
:102e30006120e1002500320009f8a30025003a00d6
:102e40006420e10021003200f507b1000508a3006d
:102e50000200320000004000818048006044b80059
:102e60000310200002002000000040008180480084
:102e70000805440089854c000a0541008b854900fe
:102e80000a0550008b855800030033000a00be007d
:102e900002047400838474008301d1000281d30092
:102ea000830f7100f0ff3a008904d1000884d30039
:102eb0006001490082017800c1adde00fb07b0006f
:102ec0005d010700550137000960a0000800be0041
:102ed0005201370012022000c2908800f0ff2f003c
:102ee000f1ff27004d013700889fbe008a9fbe007a
:102ef0008c1f7800380107001002200002003b0000
:102f0000c09088003c0137008a0062006408e1003c
:102f100002003a00c0908800440137006108e100d7
:102f2000fcff32000800be00030478006fff0700ba
:102f300001f0a100ff01070008f0a600040037001f
:102f40000001be0091042400b0fd2000aafe07008d
:102f500009f0a70001f0a200300137000001be0017
:102f6000df0107000470a70003f0a1006509b100ac
:102f7000160032000d0035006828e100060035001b
:102f8000f0ff2f00f1ff27000300e00013003b00db
:102f9000010028000000050000004000818048007a
:102fa0008502e900fcff3a0008003700f88f420074
:102fb00002003c008000eb00000005008100d10011
:102fc0000080d3008502e800fcff3a000300e00027
:102fd00002003b0060001000e080180000000600c6
:102fe0000c00fa00889fbe008a9fbe008c9fbe0026
:102ff000f90007000206be00840578000200be004a
:10300000020020003002070005003a008b02b300e6
:10301000120020002c02070001003a00f8856d0024
:103020000c01be00c60007000800be009b00320075
:103030000b08a3009e003a000df0a7000be0a000d3
:1030400009f0a7000bf0a00009f0a1000801be00e4
:10305000bb0007000bf0a6009500320001003c0009
:103060000bd0a0008acf7500b20033006000b8001a
:103070006250e10099003900a1003e000b28a30036
:10308000a2003a000bf8a300060032000b58a30080
:10309000a70032000801be00a90007000800be001a
:1030a000940032000800be002e0207000004be009b
:1030b000050578000bf0a7000b30a6000bf0a1006f
:1030c0005b079800324f200053f323004fff0700a7
:1030d00005003d000800be00120020002e0207007f
:1030e0000004be000a05e9004a0798006150b900d3
:1030f000d3fe0700008fbe000c01be009cfe07003f
:1031000096ff0700300798000100e00002003d0034
:1031100060001000e0801800f2ff2700820f5000ce
:10312000e08f580064003e000c00be008bff0700db
:1031300020079800f2072000820f5000e08f58000f
:1031400005003c0012f82f00f3ff2f00820f500003
:10315000838f580009003d000a00e00003003200a0
:1031600001003c000201ea00020578006000b8009e
:10317000200798003a079800190037003e00900099
:103180006100b900aefe0700809fbe000c00be00cb
:103190004109dd004811de007208b100ca010700d4
:1031a0000005be001e01be0071fe07004f01be00fb
:1031b00011fe0700809fbe000c00be000a01be0089
:1031c0000dfe07001e01be0069fe07004f01be0094
:1031d0000afe07008221270013f3230064fe070084
:1031e0000005be002e0090006100b90094fe0700ab
:1031f00001f0a2000c01be0000fe07000006be00a8
:103200000800be00060207000c01be0058fe0700c1
:103210000a01be00f9fd0700809fbe004a000700ba
:103220002e0590000af0a7000a05ea000500370005
:103230000800be000801be004dfe07000004be00ed
:103240000c00be000801be000a00a70048fe0700ef
:103250000006be000a05d100f5ff3a005e019000ad
:1032600002e0a600030037000001be0036000700a0
:103270009efe07000004be004f00be003f02070094
:103280000801be003afe07003e019000c20107009f
:10329000de0590000bf0a70001f0a2004f06be0073
:1032a0004f05be004f04be000080fa00000006007b
:1032b00025000700f9ff3700270007006000b8006d
:1032c0000bd0a7000bc0a0000be0a7000bc0a20012
:1032d0000bc0a70001f82700f0ff37000df8a3008e
:1032e000020032001e000700190007000bf8a300bf
:1032f000eaff32000b30a70001f0a200e7ff370021
:103300000df8a300f9ff3a00f7ff37000801be00ef
:103310000b000700e6ff320001003c000df0a200a8
:103320006000b8000df0a70009000700dbff3700c0
:103330000b000700f1ff2700f0ff2f00d7ff370039
:1033400001000700b1fe370001f82300000005006e
:1033500001f82700000005002002200001003700ce
:1033600010022000c0908800000006000001be008e
:10337000db0007000470a70003f0a10003f8a3001e
:1033800013003a006509b100100032000900350051
:103390006928e10002003500010028000000050056
:1033a00000004000818048008502e900fcff3a00ef
:1033b00000000600f88f4200050035008100d100b2
:1033c0000080d3008502e800fcff3a000000060000
:1033d0008000eb00000005000004be00c0000700f4
:1033e0000003be000405be000200be00bc000700d2
:1033f000844f7500000006000200be006450e1002a
:10340000050036006420e100020036000968a300d0
:1034100001003a000800be000160a0004f067800dd
:103420004f05be004f04be0000000600f0ff2f0055
:10343000f1ff2700f9ff370081002000618055006f
:103440000b003d000b00200061fe2f000100e10099
:103450001d00340082817100610164008904d10083
:103460000884d3000000e800faff3a007100200051
:103470006100640003007000020060000900320077
:1034800061044400e0844c000988a5000500320076
:103490008b05e8006808e10002003a008904d100c9
:1034a0000884d300f20f20000258e10005003d001f
:1034b000c75ddd00f907b20089807500080078005b
:1034c000000006000bf827008b00780000000500c4
:1034d000889fbe008a9fbe008c9fbe008205780038
:1034e0000004be007e0007000800be006420e1006a
:1034f0000700390002003a00f1ff2700f0ff2f001b
:103500000160a00012022000c29088005500370020
:103510006120e10003003a000b00a70001f823003e
:103520005000370001f0a100020021009364240044
:1035300036fe07000800be0004003500b2fd200082
:10354000930c2400ef0107000004be000005eb000f
:103550000b00a6004f0dde0001f0a1000004be002c
:1035600032982f0023ea230081fd07000001eb00c1
:1035700003f023000b00a70003f823001ffd070042
:1035800076fe07000000a7000a00a200acfd0700bd
:103590000b00e000030032000200200003f02300d3
:1035a00015fd070001f0a2000006be000200200089
:1035b000930424006efd07000801be000ffd070004
:1035c000809fbe000c00be0022a22a00d3a72300c9
:1035d00067fd07004f01be0008fd07000004be00a4
:1035e00001f0a100020020000398230007fe07005d
:1035f0000800be00190035000001be005cfd070098
:103600000006be00b2c52900e362230058fd070092
:1036100022222b00f3942b00f8fc07000c01be00c3
:1036200053fd0700e273280083c02300f3fc07006a
:103630000c01be004efd070042aa2a00a3e22b00a7
:10364000eefc07000c01be0049fd07000801be00aa
:1036500047fd07000801be00e8fc07000a00a700bc
:1036600001f0a2004f06be004f05be004f04be0091
:1036700000000600889fbe008a9fbe00841f78005d
:1036800055ff07004f00780011003300f0ff2f00b6
:10369000838f6c0006003b00040565000a00a7004c
:1036a0000800370009f0a6001000200008003700cd
:1036b000820f5400838f5c0003003900100020004b
:1036c00001003e000000200009f0a7000000ea0011
:1036d0004f05be004f04be000000e00000000600e1
:1036e000c70ade00f107b200f50fb2000800320091
:1036f000e1cf4200020032000170a000240005006a
:10370000810f70000100320004080500440005002c
:10371000810f700002003a00140005008502e900e4
:103720000000400081c04800fcff3b000170a00089
:1037300024000500889fbe008a9fbe008c9fbe00ab
:103740000004be00e6ff07000800be0089067800fe
:103750006420e10008003900040032000160a0008c
:1037600012022000c29088005300370091fc230011
:10377000b0fd20004e0037000006eb0009f0a1006c
:1037800003f82300020020000800be009ffd070090
:103790000600340001f82300000020000801be00ec
:1037a00052fd07000004be002c0020000800be00ef
:1037b00093e82300320a230094fd0700120034002e
:1037c0000801be00d1fd2300703d2b008bfc0700db
:1037d0000005be00b3f32300f27a26000800be0005
:1037e000e3fc070003f823000200200082fc07002e
:1037f0000801be0081fc07000a01be003bfd070076
:103800000004be000c06e8000800be0001f0a100a4
:1038100002002000039823007cfd07000800be0082
:10382000160035000801be00d1fc07000005be00ef
:1038300032cd2c0043fb230070fc0700809fbe00ac
:103840001269280003d52b000a00be00c8fc07003f
:10385000620f210013ef2b0068fc07000a01be0075
:10386000c3fc07004f01be0020fd07000801be0099
:10387000bffc07000801be0060fc07000c00e00070
:103880000b0032000c10a70001f0a200b2fd2000d6
:1038900093fc23006260e1000400320022a92000b2
:1038a00063f023000c10a70063f8230053fc07000b
:1038b0000df0a70001f0a2004f06be004f05be00ac
:1038c0004f04be0000000600889fbe008a9fbe0015
:1038d0000003be0082ff0700850578008281520048
:1038e000020020006220e10004003a00f307b1006a
:1038f000040035007718e100040035000600be0022
:10390000140037006000b8000f003700f50f2000ea
:10391000faff2f008502d1000a85d3008301e90058
:10392000fcff3b008184620000046500890f740085
:10393000f2ff32008582ea000a85ea008184620093
:1039400000046500bcfe070007f0a70001f0a0001e
:103950000081eb000200e0004f05be004f04be00f6
:10396000000006000003be005dff07006220e100ca
:10397000020032000600be0005000500e507b100a8
:10398000f107b20004f023008480700007f0a70064
:1039900001f0a000240005000003be0050ff070056
:1039a0006220e100020032000600be0000000600b6
:1039b00085024100e30f20000328e10005003c00e0
:1039c000a3fe2f000328e10007003d0005002000b2
:1039d00001003700f50f200020022000c090880071
:1039e0006000b800080037001300200083815200f7
:1039f00005003d008100d1000080d3008301e80074
:103a0000fcff3a0005002000c72add00f107b200e4
:103a10008580700007f0a70001f0a00000000600fc
:103a2000889fbe008a9fbe008c9fbe00cdff07000e
:103a3000850478000005be006420e10049003e00d6
:103a40006220e10003003200090035000bf8a300fa
:103a5000440032000bf8a3000800320010022000de
:103a6000c0908800f0ff2f00f1ff27003d003700d5
:103a700001f82f00000020003a0037003d00070049
:103a8000ddfb07000006be000a00be00324f20002a
:103a900053f32300dbfc0700060034000c00be00db
:103aa00034000700d4fb07000006be000a00be0079
:103ab000020037008904e9000c00be002d00070059
:103ac0002bfc07002b000700ccfb07000001be0009
:103ad0000c00be0085fc07000005be000001be0012
:103ae00023fc07000006be00a2f32300430d2c00b8
:103af000c2fb0700809fbe000c00be00d2e327007f
:103b0000d3f02b001afc07004f01be0077fc070022
:103b10000006be000a01be0015fc07000a01be0037
:103b2000b6fb07000006be006148b90044fc070070
:103b30000005be0032082800e3952b000cfc0700ae
:103b40000c01be00adfb07000006be000a00be006f
:103b50000200280013f3230005fc07000c01be003f
:103b6000a6fb07004f06be004f05be004f04be0077
:103b70000000060003f0230002000500889fbe003d
:103b80008a9fbe008c9fbe000004be00d4fe0700ca
:103b90000800be006420e10048003e0055003200ed
:103ba00072212700132b240096fc070047003c00dd
:103bb0000800be00c2ec2800e32c2c0093fc070098
:103bc000470035000800be0001f0a10002002000ff
:103bd000033823008dfc0700430035000800be00b9
:103be000b2a32a0083fb2300e1fb070002002000b0
:103bf00003f0230001f0a70003f0a0007ffb070003
:103c0000d6fc07000005be000dfc070001f0a20075
:103c10000006be000200280013f32300d4fb0700b7
:103c20000801be0075fb0700809fbe000c00be00af
:103c300032082800e3952b00cdfb07004f01be00a2
:103c40006efb07000006be000001be00c8fb0700b7
:103c5000809fbe004241250083b82300c4fb0700bb
:103c60000200200003e8230064fb07000c01be00f3
:103c7000bffb07000006be004f00be00f2f92b009c
:103c8000c3d42300bafb07000200200003f0230086
:103c90005afb07000c01be0057fb07000001be00e5
:103ca0000c00be0011fc07000200200003f02300fe
:103cb00052fb07006101450037ff07004f06be00b9
:103cc0004f05be004f04be000000060001f82700ab
:103cd0000000200022022000c2908800f7ff370079
:103ce0006000b800fbff370001f82300000020004f
:103cf000f2ff370009f8a300f0ff32006000b800bf
:103d0000eeff37000400200000003700889fbe004f
:103d10008a9fbe008c1f78004f26dd00aefd070095
:103d2000b5fd33006120e100430032006250e10044
:103d300041003e003e0039006420e1003c003200ba
:103d4000058255000f003b000402e80038003a00ed
:103d5000800f5300818f5b00350034000800be00e7
:103d600003f0a10001f0a60003f0a0000cf0a700f2
:103d700022fb0700a9fd37000603430087834b00a1
:103d80000c4646000005530081855b0002003300ad
:103d90000a03be000c00a0000402e900f6ff3b008d
:103da000850578000602430087824b0004003a0034
:103db0006000b80009f0a70001f0a00097fd3700ef
:103dc0000002520081825a000704e0000400330020
:103dd0000603430087834b008b05e900faff370099
:103de000090578000604be000203be006011b80099
:103df00091fd0700e00f5200e08f5a0007003500e8
:103e000002003c000c08a300040032000601be00c2
:103e100003f0a0000cf0a700f8fa07000a8568007c
:103e200001f0a1000af0a70001f0a0007bfd37001f
:103e30000800be0079fd3700100220000cf0a6003b
:103e4000c090880079fd37008103780024fe0700c8
:103e50000001be006000b8000478a30013003a001f
:103e60006220e10015003e000d0039008301d10001
:103e70000281d3008180d3008301d1000281d3006d
:103e80008180d3008301d1000281d3008180d300df
:103e90000538b000c42add00f300b200838172004f
:103ea00007f0a70003f0a00000000600f3ff2700c2
:103eb000f2ff2f006110b900fbff370003ff27005e
:103ec000f7ff370060001000e08018006001190063
:103ed000e081190000000600881f780000047800c7
:103ee0005001be004000be000000420081804a0038
:103ef00002014b0083814b00009cbe000294be0077
:103f0000dc00070003003100480090000000e800da
:103f1000400498004f04780000000600889fbe000f
:103f2000000478008004eb005001be004000be0099
:103f3000d0000700010031001900200004005000eb
:103f4000858058000601590087815900009cbe00f9
:103f50000294be0048009000090050004004980000
:103f60004f04be00000006001200fa00889fbe0049
:103f70008a9fbe008c1f78000205be000004be00b0
:103f8000f4b79f0085bf9f0096bf9f00a7bf9f000b
:103f90000000eb00e0b79f00d0b79f00c0b79f00c4
:103fa000b0b79f00a0b79f000006eb005fb197007d
:103fb0006fb097008000d0000000e00015003d00c9
:103fc000e1b79f00010078000200e00001003d0021
:103fd0000000a000ac00070001003d000000a000b0
:103fe000af00070001003d000000a000b200070084
:103ff00001003d000000a0008100070001003d001d
:104000000000a000b20007007c805700b2ff07004c
:1040100014003700e1b79f00010078000200e000c3
:1040200001003d000000a0009700070001003d00d6
:104030000000a0009a00070001003d000000a00061
:104040009d00070001003d000000a0006c0007007b
:1040500001003d000000a0009d0007007c8057008b
:10406000aeff07006fb097000000e00007003500ca
:1040700010002000010020006011b800080470004a
:10408000898470000a0571008b8571000c06e800b8
:10409000f0032000800f5600c4ff34006fb097007b
:1040a0000000e00006003d007fb297008fba970045
:1040b0001fbb9700afbb97007c80570086ff0700af
:1040c0000802be000a03be006fa897000000e000cf
:1040d00004003a002fb29700bfb297004fb3970089
:1040e000dfb397000400be000601be004f06780053
:1040f0004f05be004f04be000080fa00000006001d
:10410000881f780018002000881f780096ff07009d
:104110008f87e9004f04780000000600801feb0045
:1041200091ff07008f87e900000006000800fa00f1
:10413000889fbe008a9fbe008c1f78006e0007001b
:1041400005003d0043000700300007000c003d0063
:10415000330007000b003700e00f5200e08f5a00d9
:10416000e00f5b00e08f5b0006003d000400be0036
:104170000601be0053ff07000205be000004be009a
:104180001c0020002c000700ddff07000c00e000f1
:10419000010032004bff07004f0678004f05be00bc
:1041a0004f04be000080fa00000006000800fa007c
:1041b000889fbe008a9fbe008c1f78004e000700bb
:1041c00002003d001c002000220007000f00070035
:1041d00001003d001200070017000700cfff070095
:1041e0000c00e0000100320036ff07004f067800a7
:1041f0004f05be004f04be000080fa00000006001c
:1042000090b79f000100d00080b79f00e00f5400de
:10421000e08f5c00e00f5d00e08f5d0000000600b5
:104220000800be000a01be0026ff07000205be000e
:104230000004be00000006000802be000a03be0023
:104240005fb09700efb097007fb197008fb99700ec
:10425000000006001bff0700010007000000060029
:10426000b0b79f00c1b79f00d2b79f00e3b79f00d0
:10427000000006000400e1000588e1000690e1006e
:104280000798e10000000600c0b79f000200d000c0
:10429000b0b79f00afb097000100e000000006003b
:1042a000b0b79f000100d000a0b79f009fb097005b
:1042b0000100e00000000600a0b79f000100d00050
:1042c00090b79f008fb097000100e000000006004b
:1042d00080b79f000804d0008984d2000a85d200ec
:1042e0008b85d2005fb29700efb297007fb3970043
:1042f0008fbb970000000600d9ff07000605be002f
:104300000404be000006eb00e00f5000e08f5800f0
:10431000e00f5900e08f5900000006000800fa0085
:10432000889fbe008a9fbe008c1f7800f0b79f0058
:1043300081bf9f0092bf9f00a3bf9f006044b80051
:104340006055b8000006eb000408a3000800320026
:104350007fb097008fb897001fb99700afb997004b
:1043600008044000898448000a0549008b854900fb
:104370008703d1000683d3008582d3000482d30053
:1043800010002000010020006011b800080060004b
:10439000898060000a0161008b8161000000e000fb
:1043a000070032006000b80002002000030028006f
:1043b000040270008582700006037100878371001b
:1043c0008b05d1000a85d3008984d3000884d300eb
:1043d0000c06e800f0032000800f5600daff3400de
:1043e0000400be000601be004f0678004f05be0067
:1043f0004f04be000080fa00000006000800fa002a
:10440000889fbe008a9fbe00170007000605be00f9
:104410000404be00e00f5200e08f5a00e00f5b0082
:10442000e08f5b0008003d000400be000601be00f6
:10443000a4fe07000205be000004be000f00070036
:10444000a0fe0700080007000802be000a03be0025
:104450000a000700b1ff07004f05be004f04be0071
:104460000080fa0000000600e0b79f00f1b79f004f
:1044700082bf9f0093bf9f00000006006fb09700af
:10448000ffb097000fb997009fb997000000060092
:104490008f1fd1001d0107008f87e9000000e00099
:1044a000000006001400fa00889fbe008a9fbe002c
:1044b0008c9fbe000004be000205be0068004700dd
:1044c0000a90be000890be00390107000070a700e6
:1044d0000bf0a100304320009e0290008082520029
:1044e000b0fe2f000028e10011003d00b0fc2f00bd
:1044f0000028e100150034001e0990008e0890008d
:104500007e0090000501b0000201d1008180d3003f
:104510000080d3008502e800fbff3a000b00e000ba
:104520005e013b0060001000e08018005b01370076
:10453000f0ff2f00f1ff27000b00e00057013b00c8
:104540000100280000002000540137006000b8007e
:10455000520137004f89de00820178005401370094
:1045600007f0a20089013700809feb00e7000700f9
:104570008f87e9000000e00000000600839f6800cc
:104580000100e00002003d0060001000e080180023
:104590000300e00002003d0060011100e08119000d
:1045a000f70107004f00e00002003b006000100030
:1045b000e0801800000006002800fa00889fbe0076
:1045c0008a9fbe008c9fbe0003866b001f01070000
:1045d0000028a30064003a000128a30067003a0005
:1045e0000008a30062003a000108a30065003a0039
:1045f0001e009000be08900081064000ed3fb10013
:10460000f4805700ee019000111ab8008e09900056
:10461000311bb8009e099000311cb800511db80034
:10462000f485570046000700fe0190003a0007009d
:104630008b85e8003e0007008e09900040000700cf
:10464000ee019000340007008b85e8003800070079
:104650008e099000400007009e0990001b18b800ca
:10466000890440000a854800fe01900034000700dc
:104670008b85e80038000700ee019000300007004d
:104680008e0990001b18b800890440000a85480074
:104690000a98a30008003a000402420085824a00fa
:1046a00006034b0087834b0008044c0089844c00b0
:1046b0000a054d008d06e9008482720085027300b0
:1046c0004c3add0085027200010032001500200026
:1046d000443ade001400b2004538de00cb45dd0070
:1046e0000b007000c540de00cb4ddd008b807000fc
:1046f0004549de00cb55dd000b017100c551de00e0
:104700000d037800ae01070003f0a1000cf0a70034
:1047100003f0a000e10037001b18b800850240003c
:1047200006834800e0834b0060044c00070037001c
:104730001b18b8000603400087834800faff3700c3
:104740001b18b8008703400008844800e0844c0030
:1047500060054d00000006001b18b800080440006a
:1047600089844800faff37000108a300c8003a0016
:104770005800be005801be00e3ff37000008a30048
:10478000c3003a0009047800f9ff37002800fa0056
:10479000889fbe008a9fbe008c9fbe0003866b0070
:1047a000aa0007006400e100440032006408e10050
:1047b0004a0032006100e100460032006108e10079
:1047c00049003200ec0647006000b8003d02be0020
:1047d0003d03be00f48657006011b8003d04be00e2
:1047e0003d05be007d0320000b0037000000a00047
:1047f0008d06e900130032000402420085824a005f
:1048000006034b0087834b00000040008180480076
:1048100002014900838149000802520089825a003e
:104820000a035b008b835b00f0ff3b000802420041
:1048300089824a000a034b008b834b008d06e900f6
:10484000edff3a008482720086827200f707b200a0
:104850008782720001003200150020001e049000c3
:104860003e0b900006035400e63fb0000368a3002f
:10487000070032000000a7000500a0008301d1005e
:104880000281d3008180d3000080d3000603e800ba
:104890008301d1000281d3008180d3000080d30046
:1048a0000002eb000482d2004501070003f0a100e2
:1048b0000cf0a70003f0a000780037006402470066
:1048c0006408e100720032003400be003401be0012
:1048d000f6ff37006108e1006d0032006011b8009a
:1048e0006000b800f1ff370003ff2700020020003e
:1048f000fbff3700020ab900001bb9000200b80034
:10490000810042008100430000000600889fbe0035
:104910008a9fbe008c9fbe000404be000605be0038
:10492000809fbe00829fbe005101070004067800f0
:104930000800be000a01be004d0107008406780091
:104940004f03be004f02be008d4f76007fb0970030
:1049500013003300f0ff2f008b8f6b0006003b002d
:104960000d0666000c00a7000a00370007f0a6003d
:10497000100020000a003700880f5200898f5a006b
:104980008a0f5b008b8f5b00030039001000200052
:1049900001003e000000200007f0a7000000ea0030
:1049a0004f06be004f05be004f04be0000000600cb
:1049b000800078005002be005003be004439de0083
:1049c000f700b200f37f200003016100090032000c
:1049d0000218e10016003a0085017200830173009d
:1049e000838173000008200015003a004000200079
:1049f0001300370085017200830173008381730007
:104a000005003a0004a8be0006a8be001000200061
:104a10000b0037000201e9000402420085824a00cf
:104a200006034b0087834b000748a300f9ff3200c1
:104a30000740a00004a8be0006a8be002000200079
:104a4000800098009200980000000600680447006b
:104a50000294be000094be00fc0447008694be0091
:104a60008494be0009007800d1ff07000800780098
:104a7000cfff070099007800814f70000b003b00ca
:104a80000800be000c0107004f00b1000300370012
:104a9000f3ff2700f2ff2f006110b9004f06be00a0
:104aa0004f05be004f04be000080fa000000060063
:104ab000889fbe00830478000300e0002c003500ce
:104ac00003003c00008270000402710026003200e6
:104ad00036432000c50020008383cf000a00390040
:104ae0000541b1008283cf00070039000541b100c4
:104af0008183cf00040039000541b1008083cf00dd
:104b0000010039000541b10085c353006022b8009f
:104b1000120032000a003b008482720061026000d1
:104b20008301d1000281d3008180d3000080d300b3
:104b30000603e8008743e800f7ff3a000700370064
:104b40000000400081804800020149008381490043
:104b50000603e9008743e900f9ff3a0098000700df
:104b600009f0a70003f0a0004f04be0000000600fb
:104b700060001000e080180060011900e081190059
:104b8000d3ff3b00033e2c00f7ff37002800fa005c
:104b9000889fbe008a9fbe008c9fbe0007067800db
:104ba000878669000c003b000304780087047800c6
:104bb00008f0a10009f0a100840f5000858f580073
:104bc000860f5900890f5c00030033000cf0a2002f
:104bd00001003a000cf0a1009cff07006400e10016
:104be0005f003200780147006408e1006100320094
:104bf0006c014700748557003200be001201be00f0
:104c00003a04be001a05be001e039000be0a9000c2
:104c10008503530006003d000004fd008104fd00f3
:104c20000205fd008305fd008703ea000503780007
:104c30000df8a3000400320060041400e0841c009e
:104c400060051d00e0851d006022b8007d03200086
:104c50000d38e1008006eb000b0039004433dd0025
:104c6000f300b200830173003900370084827200c0
:104c70000d027800e10664008b85d1000a85d3001f
:104c80008984d3000884d3008703e900f7ff3b0041
:104c900008004000898048000a0149008b814900d2
:104ca00004003b0060001000e08018006001190063
:104cb000e08119000358a300090032008d827200c0
:104cc00084827200610260008301d1000281d300fe
:104cd0008180d3000080d3000603e8001b0037006a
:104ce0000348a30017003a000600e0001700340054
:104cf0000603e9000d00a300000048008180480081
:104d000002014900838149000348a3000f003a00d3
:104d10000600e000090034000603e900000040003e
:104d200081804800020149008381490001003a0066
:104d30000003eb000348a300f5ff32006022b80037
:104d40000200370084827200618266001c00070046
:104d500003f0a1000cf0a70003f0a0004fff370004
:104d6000640147006408e10002003a000df8a30066
:104d700047ff3a003200be001201be0047ff370075
:104d80006022b800060220000000d0008180d2001e
:104d90000482d2008582d2000000a00002025200ec
:104da00083825a0003003b000202420083824a00d1
:104db0000000a1000603e900f3ff3a00000006002e
:104dc0001800200057002000080453000d003d008b
:104dd0000600200097fc2f000740e1001e00340071
:104de00084827200610260008301d1000281d300dd
:104df0008180d3000080d3000804e800f8ff3a0067
:104e0000470020006104600005047400040464008d
:104e10000d00320061004000e08048006001490060
:104e2000e081490003b8a500070032000603e8004e
:104e30006538e10004003a008301d1000281d3000b
:104e40008180d3000080d300f87f20000830e1008b
:104e500003003500080378006000b8006011b80056
:104e60004433dd00f300b20083017300000006004c
:104e700005ff270005826100070032000428e100d9
:104e800001003200240005000600070001003a007e
:104e9000440005000408050002000700f9ff3a007d
:104ea000140005006f8261008102700085027100ac
:104eb0008502720000000600e48240001078a30022
:104ec00007003200640240001178a3003400be00e5
:104ed0001401be00040032000330a70000000600e9
:104ee0003500be001501be000330a0000000060022
:104ef0002000fa00881f78001f010700000420002e
:104f00000d0107004d140700d71407001f120700fa
:104f10000000eb00200798000000eb00300798002d
:104f20000000eb00400798000000eb00600f9800c5
:104f30000000eb00500798005e009000e70f500063
:104f40003a003c00ec0047005e0090000000d000fa
:104f5000010440005e00900097110700000c7800eb
:104f6000ec0047005e0090000000d000810040008f
:104f70004e0090001100400040079800ec004700f0
:104f80005e0090000000d00001004000100078009a
:104f9000700f98006e089000fe089000808f5000ff
:104fa00002003d006e099000720f98007e0890008c
:104fb000600f98005e0090000000d000a118210052
:104fc00001014000ec0047005e0090000000d000ae
:104fd00081004000120078001180b9003e0190006d
:104fe00000004100300798005e0090000000d000f3
:104ff000a119210001014000ec0047005e00900073
:105000000000d00081004000120078001180b9003b
:105010002e01900000004100200798005e009000e3
:105020000000e80050079800c3ff37002e009000f2
:10503000c2122000110009000200d80020079800c9
:105040003e009000c2122000110009000200d800aa
:10505000300798002e009000800cb00020079800c8
:105060003e009000800cb00030079800608d8000fa
:10507000630060000000e00003003a001204070033
:105080000000eb00608d88000077800011778000c1
:105090006077880071778800207780003177800002
:1050a0008077880091778800407780005177800072
:1050b000a0778800b17788009e0090001e007800dd
:1050c000030107000904070019020700417480006a
:1050d000800020000008b80082ec2000020440009c
:1050e00062778000737780000077800011778000fe
:1050f00041f60700f2ff2f00931724009cf60700eb
:10510000008cbe0041748000800020000008b800c0
:10511000c2ec200002044000827780009377800078
:10512000207780003177800033f60700f2ff2f00f0
:10513000931724008ef60700008cbe004302070080
:105140008e80e8000e00780064010700ce00900019
:1051500000962000808f5000110034009e007800df
:105160006e0890000088b9000200220011000900ba
:105170000200d8001e0f10009e0090006e089000e4
:105180000088b90002002200110009000200d800c6
:105190008000fd001e0090000100500010079800e4
:1051a0002e0090001e0f40009e0090003e009000d8
:1051b00000804000100798000000eb00a10b0700e2
:1051c0000000eb00dc0b0700608d80000000e800b1
:1051d000608d880000042000570007004cff370056
:1051e0000200fa00e7c2bf000080fb000000d1000f
:1051f0000080fb0061006000000f78001e00780056
:105200000000d000000f7800e7c2bf000080fb0064
:10521000610060009e00780080804000010f7800ef
:105220001e0078000000d000000f7800e6c2bf002a
:105230000080fb004700de000080fb009e0078003d
:1052400080804000010f78001e0078000000d00030
:10525000000f7800e6c2bf000080fb004600de00c1
:105260000080fb00610060009e00780080804000ac
:10527000010f78001e0078000080fa000000060090
:105280000000fa00224fe20005003a000040eb0067
:1052900023efb70010c0b30022efb7001f003700a4
:1052a000e07880000000e800a20020001100090062
:1052b0000280d8008000fd000000e00005003a00f8
:1052c0000000eb00e0788800f07880000000e80043
:1052d000f0788800f07880000000e800a20020004c
:1052e000110009000280d8008000fd000000e000ed
:1052f00005003a000000eb00f0788800007980009b
:105300000000e80000798800e07880000000e800f4
:10531000e078880010c0b30023efb7000080fa00e7
:10532000000006000000fa0010c0b30024efb70030
:105330000080fa00000006000200fa00000f78006a
:105340000040eb0024efb7009e007800a000200092
:105350000008b80080007800209922006409070046
:10536000244fe200feff320020992200910907003d
:105370000080fa00000006000200fa0001090700a0
:10538000f00e0700770407008e060700240b0700c5
:105390000000eb00e07888000000eb00f078880067
:1053a0000000eb00007988000040eb0022efb7001e
:1053b0000040eb0023efb7000040eb0024efb70004
:1053c0003609070093100700a10020000094220076
:1053d0004709070082ff0700407488000000eb00c7
:1053e000000f7800200020009e0f10001e003c00df
:1053f0009e007800400020000008b80003ee200066
:10540000030140006000b8000089be009e007800e3
:10541000400020000008b800c3ee20000301400057
:105420006000b8000089be009e00780040002000a7
:105430000008b80062f02000820040001000200048
:10544000800878009e007800400020000008b80026
:1054500043f020000300400001798000010878003b
:105460001e0fe800dfff3700880ee20002003a005e
:105470000000eb00508d88000080fa00000006005c
:105480000400fa00000f7800110798009e007800d1
:105490001e009000910f1000030034001e007800e1
:1054a0009e009000010878001e0078009e00900089
:1054b0008100ea00908f100003003d009e007800fc
:1054c0001e0090008008ea000080fa00000006003c
:1054d0002000fa00889fbe00000f78001107980096
:1054e00040778000517780002007980031079800ae
:1054f0001e009000cf80de00d1f5070052872c00ff
:10550000d3bc23009af50700e2f92e0073ca2300ea
:1055100097f50700f226210033d8230094f5070001
:1055200040079800510798001e007800cf80de00e9
:10553000c3f5070052872c00d3bc23008cf507006d
:10554000e2f92e0073ca230089f50700f226210034
:1055500033d8230086f5070060079800710798008c
:105560006e019000fe0190004e009000de00900061
:1055700022f507000200200003002400dbf50700ed
:10558000000f9800110f98006e019000fe0190002e
:105590004e009000de00900017f5070042df2f005c
:1055a00043dd2300d1f50700200f9800310f98004c
:1055b0000e0890009e0890000004be0009f0a200b2
:1055c0002e009000be0090000af607000001be0009
:1055d0000800be0066f50700400f9800510f9800c4
:1055e0000e0890009e0890000004be0009f0a20082
:1055f0002e009000be00900000f607000001be00e3
:105600000800be005af50700600f9800710f98005f
:105610004e099000de09900000778000117780002d
:10562000f6f4070000778800117788006e09900073
:10563000fe0990002077800031778000eff40700aa
:1056400020778800317788002e099000be099000ed
:105650004077800051778000e8f4070040778800a9
:1056600051778800325c2f00830c24004077800043
:1056700051778000e3f507000000e00007003400e8
:10568000325c2f00830c240040778000517780002b
:10569000d9f4070040778800517788006011b8007e
:1056a0004077800051778000d8f507000000e000c7
:1056b00007003d00325c2f00830c240040778000ff
:1056c00051778000cdf4070040778800517788003b
:1056d0004f04be000080fa00000006001c00fa0023
:1056e000889fbe008a9fbe00000f780011079800b7
:1056f00041748000800020000008b80082ec200087
:10570000020440004077800051778000bbf507001d
:105710001801be0016f507000005be0041748000a8
:10572000800020000008b800c2ec20000204400005
:105730004077800051778000aef507001801be0069
:105740000bf507000001be000a00be00abf4070025
:1057500020079800310798004174800080002000e5
:105760000008b80082ec2000020040001000be00db
:105770000004be0009f0a20040778000517780004d
:105780009cf507000001be000800be00f8f4070009
:105790000005be0041748000800020000008b800b1
:1057a000c2ec200002044000407780005177800066
:1057b00092f507001801be00edf407000001be00dd
:1057c0000a00be008df407004007980051079800ba
:1057d0002e019000be0190002e009000be009000af
:1057e000e3f407000004be004e019000de019000cb
:1057f0004e009000de009000ddf407000001be00c6
:105800000800be007df4070082f5070060079800dd
:10581000710798004e019000de0190002e0090006c
:10582000be009000b0f5070001f0a200000f980044
:10583000110f9800d2cc2c00c3e423006e0090001e
:10584000fe009000caf407000004be000e0890009d
:105850009e08900069f507000001be000800be0028
:10586000c3f40700200f9800310f98000e08900035
:105870009e089000400f9800510f98001e04780079
:1058800042df2f0043d523004e089000de08900031
:10589000b7f40700020020000300240013f50700fe
:1058a0000001be002e089000be08900052f40700d0
:1058b000d2c72800e3732400adf40700a7f5070062
:1058c000000c78001e04900042df2f0043d5230017
:1058d0004e089000de089000a5f4070002002000aa
:1058e0000300240001f507002e099000be09900076
:1058f00042f40700d2c72800e37324009cf4070099
:1059000096f50700000c7800013220001e00780098
:10591000dbfe0700013220001e009000d8fe0700c9
:105920004f05be004f04be000080fa0000000600d4
:105930000200fa000000eb00000f780020002000b9
:105940009e0f10003f003c00407480009e0f10002e
:105950003a0032009e007800400020000008b800a5
:1059600042f02000820040000079800011005000c9
:10597000801f7800a01a2d00801f780060f22000a0
:105980002deb0700e487570060f22000ad0a070006
:105990009e007800400020000008b80042f020007f
:1059a0008200400000798000910050001003200028
:1059b000808f5000110036009e00780040002000cb
:1059c0000008b80062f02000820040000000eb00f8
:1059d000800878001e007800801f7800a01b2d0032
:1059e000801f780060f2200013eb0700e487570067
:1059f00060f22000930a0700100037009e00780034
:105a0000400020000008b80062f020008200400042
:105a100010002000800878001e007800801f7800a9
:105a2000601c2d00801f780060f2200002eb070050
:105a3000e487570060f22000820a07001e0fe8008a
:105a4000beff37000080fa00000006003200fa00b6
:105a5000889fbe006000b8006011b8002007980061
:105a60003107980042079800530798006000b8007b
:105a70006011b8006007980071079800020f980045
:105a8000130f98006000b8006011b800200f980054
:105a9000310f9800420f9800530f98006000b80033
:105aa0006011b800600f9800710f980002179800fd
:105ab000131798006000b8006011b8002017980014
:105ac0003117980042179800531798006000b800eb
:105ad00060179800711798000000eb00001f9800f5
:105ae0000000eb00000f7800200020009e0f100047
:105af00065003c00407480009e0f10006000320082
:105b00009e007800800020000008b800c2e8200055
:105b1000020240009e007800800020000008b800cb
:105b2000c3e82000030040001001be001400be00c6
:105b30000ff407000004be009e00780080002000e3
:105b40000008b80002e92000020240009e00780030
:105b5000800020000008b80003e920000300400096
:105b60001001be001400be0001f407000001be00d9
:105b70000800be00a1f30700a6f407006017980014
:105b80007117980002002000032224006e1090007c
:105b9000fe1090009df407000000e00038003d007a
:105ba0000000eb00100798001e009000e10f50006d
:105bb00033003c009e009000400020000008b80028
:105bc000000047006c0440009e0090004000200050
:105bd0000008b800000047006c0240001e0078007a
:105be0008000d0001e009000808040004000200017
:105bf0000008b80082ec2000020040001001be0046
:105c00001400be007df30700008cbe009e009000d3
:105c1000400020000008b800000047006404400075
:105c20009e009000400020000008b80000004700df
:105c3000640240001e0078008000d0001e0090002a
:105c400080804000400020000008b800c3e8200029
:105c5000030040001001be001400be0067f30700ff
:105c6000008cbe000e1890000000e800001f980095
:105c70001e0090000000e80010079800caff3700df
:105c80001e0fe80098ff37000000eb001007980097
:105c90001e009000e10f50002b003c000e189000f9
:105ca0000000e000240032009e0090004000200030
:105cb0000008b80000004700e40440009e00900087
:105cc000400020000008b8000000470064044000c5
