:020000040000fa
:080000001c01040000000000d7
:020000040000fa
:100200004426040000000000222604000000000034
:10021000f634040000000000523904000000000021
:1002200036400400000000001241040000000000fd
:100230009c010400000000000f4f21008079220083
:100240000001880000000000050007000c00070006
:100250000e250200000000000040da000000fe0051
:100260004440a900000620000000e0000300320026
:1002700000002000a00188004440a8000000060003
:10028000803b25000100200016003700620040007e
:10029000e0804800910188009001ba0062004000af
:1002a000e0804800910188009002ba00620040009e
:1002b000e08048000002eb006028e10005003a0001
:1002c0008301e90007003300038009000059eb00b7
:1002d000040037006128e100010032000082eb00d9
:1002e00005000700910188001001ba000200e0003b
:1002f000e6ff3a00000005009101880080027800c6
:1003000062004000e08048003559ba008301e900ee
:10031000080032002559ba008301e90005003200c7
:100320000400e000f4ff320015d9ba008301e900af
:10033000f1ff3a0000000600881f780002047800f0
:1003400025010700080040004f0478000000060067
:100350000000fa00881f7800000478003fb9970079
:10036000ea81570080007800c019200028010700aa
:10037000800078000000e000020035000040eb0043
:1003800000f47800010078004f0478000080fa0043
:1003900000000600889fbe008a1f780050938000ee
:1003a0000000e000010032000000010080938000a6
:1003b0000000e0000100320000000100a085800084
:1003c0000000e0000100320000000100b085800064
:1003d0000000e00001003200000001006852e2006d
:1003e00028003a000005eb00d260260093012000af
:1003f00060938000719380005e0d0700f2352f003e
:10040000e3c623000000410081804900609388001a
:10041000719388000a05e800e70f5500f2ff3400e9
:100420000005eb006454b800800b21000004440078
:10043000d2602600930120006093800071938000b9
:100440004c0d0700f2352f00e3c6230000004100e9
:10045000818049006093880071938800008cbe0001
:100460000a05e800ff0f5500eeff3400a489800064
:10047000b5898000848588009585880010c0b30008
:1004800068f2b700d26026009301200060938000dc
:1004900071938000370d0700f2352f00e3c623006b
:1004a00000004100818049006093880071938800ba
:1004b000828580007f0561006451b800850b2100b2
:1004c000050141001202be008485880095858800e0
:1004d0000089be0080858000918580000100780041
:1004e00000f0a1004f0578004f04be000000060098
:1004f000889fbe008004780021948000010078006d
:100500000100e0000a003a00612821008612e200a2
:100510001c00320011007800908f54001400360047
:100520008080e8001100e000faff3a001500370073
:100530001100e0000600320011017800928f540093
:100540000b0036008280e8001100e000faff3a005c
:10055000100178006128210030948000820f500043
:100560000800320011007800908f540002003e0015
:1005700001007800150037008080e800910f11001d
:10058000f8ff3a0048948000890f540001003100c0
:100590000904780008007800520107000001780083
:1005a0000000e00005003a000000eb00890f540055
:1005b000060032000804d100f3ff37000819780064
:1005c0000200780044000700cbff37004f04be0054
:1005d00000000600881f7800630440000800a100a6
:1005e0000001eb00800f540022003600e30f54009e
:1005f00001003e004800200008007800bcff070012
:10060000800078000001eb000000e00019003200db
:10061000100178009201780064805100880f50002a
:1006200003003100120090008008780007003700b6
:100630000800410080087800120290001400980021
:1006400011007800088851000809780091007800ae
:100650000100e00004003200110090008180e800f9
:100660000000e00001003a008000eb0021948800c7
:100670000281e800020078004f04780000000600c4
:10068000881f7800000478007294800050948000e5
:10069000800f51000a0031008200d0000200e80003
:1006a0007094880060948000610078000000010070
:1006b0007294800050948000800f5100f6ff390042
:1006c00000182100609488002002200050948800c7
:1006d00008007800f20807000000e0003600320051
:1006e0000081e90012027800e30f52003200360068
:1006f0000408a30030003a00319480000100e000bb
:1007000002003200810f510003003100010878001f
:10071000329488001d00370081017800110090009c
:100720000000e00008003200820f50000600310097
:1007300080017800100090000000e000020032000c
:10074000820f5000faff39009300780001804100c9
:10075000800f510018003900820f500003003a004a
:10076000848940000301780008003700930090005e
:100770000100e0000300320004004100808f5000bf
:100780000d0039001101980092019800920090002c
:100790000100e000080032009201780003004100ef
:1007a000810f500004003a008432ef0010894100ac
:1007b00010009000100198000000060080007800f2
:1007c0001004e000020032005104e000feff3a0095
:1007d0000080500000000600800178000200e00068
:1007e00003003200b15978000201e900fdff3a0030
:1007f00000000600800178000200e00003003200e3
:10080000815978000201e900fdff3a00000006006e
:100810006200fa00889fbe008a9fbe000004be00ee
:1008200002057800830078006a805700b400070052
:10083000f88f9f0089979f000000eb00909f9f001a
:100840001a80fb008005fb000000ea00cf04de00f8
:100850000904780050022000808f550001003a0002
:100860000904e9000800e0000c0034000f90970034
:10087000080178008a007800ff89970003000100d2
:1008800080979f008080eb000000e0009000320025
:100890001f98970008004000909f9f0009054500a1
:1008a00050022000808f5500040032000b00e00051
:1008b000e3ff3a009f989700850037000000eb00a7
:1008c000f0979f00e0979f00d0979f00c0979f00f0
:1008d000b0979f00a0979f00b09f9f00090037002e
:1008e00060242100008050000000d000c1242100bd
:1008f00001004000bf98970090807000b19f9f005a
:100900000a05e8009a00fb00602421007e00070031
:10091000800078000000e000f1ff3a00a0c2b300c0
:100920009a4f10000e003a003fb897000080e9008f
:10093000b0bf9f0010007800a09f9f000000e00063
:1009400005003d000000ea00a09f9f003f9897002f
:100950000020a000b09f9f000a05e80011003700aa
:10096000a19f9f000b003700af989700f0ff270072
:10097000808f5000060032006a09b9001a00fb009f
:100980000200400001fd2f0001004000a09f9f00d9
:100990000a05e8001a00fb00630007000000e00001
:1009a000f1ff3a00e0c2b3009a4f1000030032009a
:1009b0000080eb00809f9f001c003700a0c2b300a6
:1009c000da4f100007003a003fb897000080e900b6
:1009d000b0bf9f0010007800809f9f000a05e800cc
:1009e000120037000000eb00809f9f000b003700d3
:1009f0008f989700f0ff2700808f5000060032008c
:100a00006a09b9001a00fb000200400001fd2f0036
:100a100001004000809f9f000a05e8001a00fb00cb
:100a2000410007000000e000f1ff3a009a00fb00df
:100a3000202d2100340007008040eb000000e00082
:100a400001003200ba407800817f9f0080c6b30069
:100a500080cf500004003a009acf100002003a0004
:100a600066405000070037008f789700c0c6b3007b
:100a700080cf500005003a009acf100003003a00e2
:100a800065404000807f9f000a05e800a0fb2f0022
:100a9000008447003a41780088017800ea805700d6
:100aa00060f92f000f004000250007000000e00063
:100ab00006003a008800780060f92f000f0040001f
:100ac000cf0107000000e0005dff3d008080eb00eb
:100ad000010078004f05be004f04be000080fa0000
:100ae000000006000000e00003003400f4070700e7
:100af000e10f400001003a000000eb00000006009a
:100b0000010878000000060090cf100005003200b8
:100b10001004e00001003a0000000500d0cf1000f2
:100b2000fbff3a00000006000003b100030035009f
:100b30009000b10001003c0010000500000005001d
:100b4000889fbe008a1f78000004780001027800a8
:100b500002457800830478000200fb00cf80de00ad
:100b60005002b1000180b10032052000820f500018
:100b7000e08f580095013e00006001008d013700b4
:100b80009201370091013700900137008f01370043
:100b90008e0137008d0137008c0137008b01370043
:100ba0008a01370089013700880137008701370043
:100bb0008601370085013700840137008301370043
:100bc0008201370081013700800137007f01370043
:100bd0007e0137007d0137007c0137007b01370043
:100be0007a0137007901370078013700ed003700ce
:100bf000760137007501370074013700e9003700ce
:100c0000e8003700e7003700700137006f01370058
:100c10006e0137006d0137006c0137006b01370042
:100c20006a01370069013700680137006701370042
:100c3000660137004b01370064013700630137005c
:100c40006201370061013700800037005f01370023
:100c50005e0137005d0137005c0137005b01370042
:100c60005a0137005901370058013700cd003700cd
:100c700056013700150037001c003700c900370047
:100c8000c8003700c7003700500137001700370091
:100c90004e0137004d0137004c0137004b01370042
:100ca000ec003700690037001f01370047013700ab
:100cb000460137002b01370044013700630037003d
:100cc0004201370041013700600037006e014400e7
:100cd00012007800808141009480e900010a7800c8
:100ce0000009e8009149780041013700a8609000b0
:100cf000c0c6b30080cf50000a003a0094007800cc
:100d000064805000000a78001000be004f89de00a9
:100d1000cf91de000002be0002037800820378005b
:100d20001500370010c7b30080cf500002003a0012
:100d3000140178000400370014017800a0c6b30045
:100d400080cf500005003a0068005100000a78008a
:100d50003002be002003be00070037000280e90019
:100d6000000a78001000780000027800cfa2de00b0
:100d70000503780086037800049cbe000694be003c
:100d8000a860900080c6b30080cf50000f003200f2
:100d900020c6b30080cf500006003a00184078000b
:100da0000000fb00cf80de000101780082017800a6
:100db0000a00370040c7b30080cf50000300320064
:100dc0006640400080cf500006003a0018007800ce
:100dd000cf80de000101780082017800009cbe0017
:100de0000294be003800be002801be00e00f500093
:100df000e08f5800e00f5900e08f590004003d00db
:100e00006e01440092007800d0c2b3000c0037009d
:100e1000081090000018a300040032006e01440086
:100e200092007800b0c2b300050037000008a300ac
:100e3000570032006e0144009200780000c2b300f7
:100e400080f478000109e80051003700a8609000a4
:100e5000c0c6b30080cf500006003a00940078006e
:100e600064805000000a78001002be006033b800b1
:100e70001500370010c7b30080cf500002003a00c1
:100e8000140178000400370014017800a0c6b300f4
:100e900080cf500005003a0068005100000a780039
:100ea0003002be002003be00070037000280e900c8
:100eb000000a780010007800000278000500200089
:100ec0000600200007002000049cbe000694be001f
:100ed000a860900080c6b30080cf50000f003200a1
:100ee00020c6b30080cf500006003a0018407800ba
:100ef0000080fb0001002000020020000300200011
:100f00000a00370040c7b30080cf50000300320012
:100f10006640400080cf500006003a00180078007c
:100f2000010020000200200003002000009cbe0001
:100f30000294be00081090000038a3001400320094
:100f40003800be002801be00e00f5000e08f5800be
:100f5000e00f5900e08f59000d00320080c7b30048
:100f6000804f55000300320080c5b300804f55000c
:100f700007003a006e0044009000780002c3b300fe
:100f800082f478008100e8008af478000108e80023
:100f90007800900000804400600498008a40780047
:100fa0006d003700a860900014017800c0c4b30041
:100fb00080cf500005003a0068005100000a780018
:100fc0005001be004000be00040037006400510024
:100fd000000a78001000be006c0a0700009cbe00ea
:100fe0000294be00380090000000e00004003d00c4
:100ff0006e01440092007800d0c2b3000c003700ac
:10100000081090000018a300040032006e01440094
:1010100092007800b0c2b300050037000008a300ba
:10102000050032006e0144009200780000c2b30057
:1010300080f478000109e800780090000080440006
:10104000600498008a407800080078003a010700a0
:1010500067003700286090008000fb00c006200079
:10106000808f5000230032000a003c0064005000d2
:10107000808f50002600320004003c0066005000c3
:10108000808f50000b00320021003700a0062000a6
:101090000500370040072000808f50001c00320000
:1010a0001b003c0063005000808f5000070032009e
:1010b000170037001480e900000a7800100078005b
:1010c000485c900008487800490037001480e90027
:1010d000000a78001002780068089000cf80de00d7
:1010e0000101780082017800009abe000292be00e1
:1010f0003f0037001480e900000a780010017800f2
:1011000068089000cf80de000089be0038003700fc
:101110001480e900000a780010007800680c900044
:1011200008087800320037001480e900000a7800cf
:1011300010007800cf80de00010178008201780085
:10114000009cbe000294be00780090000080440025
:101150006004980081c7b300080078004d030700c1
:10116000230037001480e900000a7800100078009e
:1011700060049800580990000200e00002003d0061
:101180008efd0700090037008000eb00f303070025
:10119000800078000000e00003003200680090004a
:1011a000008050000100370058089000100c980093
:1011b0000f0037006e0144009200780050c2b30067
:1011c00080f178000109e80009003700ee004400d2
:1011d00011007800808144000a4278008008e8000d
:1011e0000a04e00001003a0054c2b30084497800c8
:1011f0000000eb004f0578004f04be000000060021
:101200000400fa00889fbe008a9fbe008c1f7800f1
:10121000000478000106780070089000f800900043
:1012200001005000880890000100500098089000cc
:1012300001005000a808900001005000b80890007c
:1012400001005000c80890008105500000022200f3
:1012500090bf9f0000032300a0bf9f0008109000d4
:101260000028a30018003a000b00e000160034002c
:101270000b0578008a047800e20f55000100360063
:10128000290020000900e0000c0034005800900004
:10129000c801900009017800ee80570003000100aa
:1012a000500498008080eb000000e0009c003200b9
:1012b0006808900009004000600c9800090555007e
:1012c0004240a900ebff3c00780190000200e000e2
:1012d0000c00340058009000c80190008c00780089
:1012e00003000100500498008080eb000000e00043
:1012f0008b00320068089000f80090000100400068
:10130000600c9800080890000000e000160034000f
:10131000000578008a047800e20f550001003600cd
:10132000290020000900e0000c0034005800900063
:10133000c801900009017800ec805700030001000b
:10134000500498008080eb000000e0007400320040
:101350006808900009004000600c980009055500dd
:101360004240a900ebff3c00180990000200e00099
:101370000c003400e800900058009000c801900074
:1013800003000100500498008080eb000000e000a2
:101390006300320068089000980890000100400047
:1013a000600c9800280890000000e000160034004f
:1013b000000578008a047800e20f5500010036002d
:1013c000290020000900e0000c00340058009000c3
:1013d000c801900009017800ec805700030001006b
:1013e000500498008080eb000000e0004c003200c8
:1013f0006808900009004000600c9800090555003d
:101400004240a900ebff3c00380990000200e000d8
:101410000e003400e8009000180890008080400022
:1014200058009000c801900003000100500498008b
:101430008080eb000000e000390032006808900076
:10144000b808900001004000600c98004808900027
:101450000000e00016003400000578008a047800df
:10146000e20f550001003600290020000900e000cd
:101470000c00340058009000c80190000901780069
:10148000ec80570003000100500498008080eb00be
:101490000000e000220032006808900009004000cf
:1014a000600c9800090555004240a900ebff3c0084
:1014b000081090000028a300180032000b00e00084
:1014c000160034000b0578008a047800e20f5500fe
:1014d00001003600290020000900e0000c00340063
:1014e00058009000c801900009017800ee80570074
:1014f00003000100500498008080eb000000e00031
:10150000070032006808900009004000600c980055
:10151000090555004240a900ebff3c008000eb00ac
:10152000010078004f0678004f05be004f04be0052
:101530000080fa0000000600ef04b000889fbe00a3
:101540008a9fbe008c9fbe008e1f7800c0af9f0098
:10155000a1df9f0060fa2f000f004000e0af9f0066
:10156000cfaa97005503be004502be0084af9f007e
:1015700095af9f00a6af9f00b7af9f0010c6b30006
:1015800080cf50001600320010c4b30080cf50004e
:10159000130032004fab9700560890000000e000a7
:1015a00003003d0060002000500b98000c00370045
:1015b0000000e0000a003a0070c6b300afdb9700fd
:1015c00080cf53000300320070c4b30080cf5300bb
:1015d00003003a0010002000cfa89700d008980020
:1015e000cfa89700e2fc2f0002804700e40207002a
:1015f00080017800e20f500014003a00cfa9970054
:10160000e3009000300020009009980010c6b3005d
:101610002fda9700804f52000a00320064404000e9
:10162000804f5200070032000040e800804f520017
:1016300004003200022a21000040e800804f5200de
:1016400017003a00422a2100150037000000e00090
:1016500018003400cfaa9700e50090003000200069
:10166000900a980010c6b3002fdb9700804f5300fc
:101670000a00320064404000804f530007003200ef
:101680000040e800804f530004003200822a21000d
:101690000040e800804f530001003a00c22a2100b8
:1016a000b258780002007800b0587800904878006e
:1016b000f201370014c6b300afdb970084cf5300ac
:1016c0000300320010c4b30080cf530010003a0072
:1016d0004fa89700ec0040001101780000c3b30050
:1016e000005978008208e80080c7b300afd897009f
:1016f00084cf50000100320080c5b300004978005b
:101700004fa99700720090000080e80070019800d7
:101710000300e00003003a008006eb00fda79f00f5
:10172000d001370011c6b300afd9970081cf510067
:101730000300320010c4b30080cf5100ad003a0066
:101740000e2b21002fda9700814f5200010032004a
:101750001e2c2100cfaa9700550890008006e800b3
:101760000000e00001003d001d0220000d06e80021
:101770004fab97003604be002605be006022b800bd
:101780006033b8000fa897009fa897002fa9970073
:10179000bfa997009c0807000000e00001003d0081
:1017a0000bf0a20088af9f0099af9f00aaaf9f00e7
:1017b000bbaf9f007fa0970064005000f0a79f0080
:1017c000efab9700805beb00e7af9f003f00370077
:1017d000c20120000300200001fd2f00018047000e
:1017e000950207000faa97009faa97002fab9700ba
:1017f000bfab9700f4af9f0085b79f0096b79f00df
:10180000a7b79f000400be000601be0083080700c2
:101810000004be000005be00670656004240a90055
:101820000c003400a90807000002be000203be003d
:101830007fa897008fb097001fb19700afb19700b6
:10184000a508070080af9f0091af9f00a2af9f0047
:10185000b3af9f00efaa9700e7824200e5af9f0079
:1018600070002000e00f5400e08f5c000d00340099
:10187000600020006fab97006f636500e6af9f00cc
:10188000cc5bdd004455de000a857300c4ddde005c
:10189000e00f5500e08f5d00020034000000e90019
:1018a000f4ff3b000000e90005003300efa89700bb
:1018b0008060eb00e1af9f000000e900fbff3b0010
:1018c0006fa9970067014100e2af9f000c00e000a4
:1018d000090034006022b8006033b8000fa89700f8
:1018e0009fa897002fa99700bfa997007c08070021
:1018f0000000e000b6ff3c00efa9970064fa2f005b
:101900000f024200048051000006e90075fa2f0022
:1019100085824700e5af9f008d0f560001003d0016
:101920008c0678000d00e0002b0035008c8f5600ef
:1019300005003d006fab970066c07e00f2c0b300ab
:10194000e74f500001003c000041eb008d00e90032
:10195000efab970067c07800824f500006003a0056
:101960008d06e9008100e900efa9970063c07800c7
:10197000824f5000faff3200ef4f510004003a004e
:101980006faa970064c078000040e80000f2780079
:101990000100e00007003d00efaa97008502e90082
:1019a000e5af9f008d06e8007fa09700640040002f
:1019b000f0a79f008d00e900070033006fab970090
:1019c00066c078000000fb006e40780000f37800ed
:1019d0008100e900f9ff3b00cfab9700570890006a
:1019e0000000e0001f013d000d00e900d00b980051
:1019f0001c0137000fac97009fac97002fad9700ec
:101a0000bfad97006022b8006033b8000800be0088
:101a10000a01be00fc0707000000e00005003d00d1
:101a20000bf0a20088af9f0099af9f00aaaf9f0064
:101a3000bbaf9f007fa09700725927000280b900ba
:101a4000026a2800130020002a080700e400500062
:101a5000f1a79f001d003b0063801000c1ff2f0015
:101a6000010460000800ea00f0a79f008004eb007a
:101a70000800e000470034000808a3000e00320010
:101a80006848b80082132100020040003002be0006
:101a90002003be000fa897009fa897002fa99700ca
:101aa000bfa997002208070080af9f0091af9f0059
:101ab000a2af9f00b3af9f000884d1008904e80063
:101ac0000800e000ecff3c00320037000100e000bd
:101ad000300034006022b8000600200007ff230019
:101ae000b4b79f00c5b79f00d6b79f00e7b79f0068
:101af000c0ff2f0000806000f0a79f000004780066
:101b00008004eb00160034000808a3001000320027
:101b10006848b80085132100050040003002be006f
:101b20002003be003fb09700cfb097005fb1970091
:101b3000efb19700fe0707000002be000203be00df
:101b4000b4b79f00c5b79f00d6b79f00e7b79f0007
:101b50000884d1008904e8000800e000eaff3c00a6
:101b60003fb29700cfb297005fb39700efb39700f3
:101b70000fa897009fa897002fa99700bfa99700cb
:101b80006008070080af9f0091af9f00a2af9f0049
:101b9000b3af9f004fab9700d608900060c6b3006c
:101ba000afdb970080cf530004003200668740000f
:101bb00060c4b30080cf530003003a007fa09700b9
:101bc000008040006a074000f30f57000100340016
:101bd0003e01200000c3b300efa8970080587800b2
:101be000e1af9f003a0037000800be000a01be00c6
:101bf0008a0707000006be00f0b79f0081bf9f0064
:101c0000680757004240a9000e003400af070700e4
:101c10000002be000203be000800be000a01be00b2
:101c2000ad0707006022b80046782d007719240020
:101c3000bf07070080af9f0091af9f00a2af9f003a
:101c4000b3af9f00efa99700e8814100e3af9f0089
:101c500088002000e00f5600e08f5e001100340085
:101c600078002000a2002000030020007fb0970031
:101c70008fb89700e60107006faa970005c3b3006d
:101c800005624100e4af9f00f0b79f0081bf9f0055
:101c9000e00f5000e08f5800020034000804e90013
:101ca000f0ff3b000804e9000600330000c3b30066
:101cb000efab970080637800e7af9f000804e9006e
:101cc000faff3b006fa8970068004000e0af9f005c
:101cd0000e00e0000b0034000fac97009fac9700a3
:101ce0002fad9700bfad97006022b8006033b800f9
:101cf0000800be000a01be00790707000000e000ee
:101d0000b9ff3c00efa8970062fa2f000f014100d5
:101d1000028050000007e90073fa2f00838147001a
:101d2000e3af9f007fa0970067004000f0a79f00ef
:101d300001c3b30093cf10000a003a000e07e90078
:101d40007fa097000000e900f0a79f006faa97000e
:101d50000402e800e4af9f0014427800814f520073
:101d6000f6ff3200cfaa9700d508900060c6b300f6
:101d70002fdb9700804f53000300320060c4b30094
:101d8000804f530004003a007fa09700008040007d
:101d90008006e8000a0037008001eb0050c6b3005f
:101da000afdb970080cf53000300320050c4b30074
:101db00080cf530001003a001300200083864000ca
:101dc0008d0f570001003d008e0678000d00e000e9
:101dd000240035008e8f560006003d006fa8970046
:101de000e0c07e0092c3b30040c3b30080cf500078
:101df00001003c0002c3b3008d00e900efa9970089
:101e000063c07800824f500006003a008d06e9005a
:101e10008100e9006faa970064c07800824f5000eb
:101e2000faff320090c3b300804f510004003a0023
:101e3000efaa970065c078000040e80080f27800c3
:101e40000100e00007003d006fab97000603e900ca
:101e5000e6af9f008d06e8007fa097000000e80035
:101e6000f0a79f007fa297008d0178006fa99700cf
:101e7000afd897004fa897007c0107004f07780064
:101e80004f06be004f05be004f04be00ef04b10078
:101e9000000006006f02b000889fbe008a9fbe004f
:101ea0008c9fbe008e1f7800800678005021210094
:101eb000b0b79f0080c5b30080cf50000200320051
:101ec00042202100b2b79f0083002000c3b79f00cb
:101ed000f0c6b30080cf50000a00320069404000d5
:101ee00080cf500005003200a4002000c4b79f003e
:101ef00080c5b30080cf500002003a0000012000ee
:101f0000c0b79f008e0120003d04be002d05be001d
:101f100040c6b30080cf500003003200654040004f
:101f200080cf50000a003a00e00f5400e08f5c00c0
:101f3000e00f5d00e08f5d0005003d000800be0081
:101f40000a01be00c90707000205be000004be006a
:101f5000e00f5400e08f5c00e00f5d00e08f5d005b
:101f600003003a005d0890000000e0000c00320021
:101f70007e012000cfb0970001027800cfa2de00e2
:101f800005037800860378000800be000a01be0041
:101f90004c0807003fb2970064407800d0e79f00ec
:101fa0004fb09700cf80de000101780082017800f9
:101fb000d0b79f00e1b79f00f2b79f0083bf9f009b
:101fc0000203be000002be000800be000a01be00ff
:101fd00035080700809ebe008296be00e00f5000cc
:101fe000e08f5800e00f5900e08f590022003400c4
:101ff0000e00e000200034003d00be002d01be00b8
:102000005fb29700efb297007fb397008fbb970046
:10201000300807000205be000004be000e07e900fc
:10202000e1fc2f008f804000010647005fb297005f
:10203000efb297007fb397008fbb97000800be00f8
:102040000a01be00d70807001d0010003fb197002d
:10205000624e7800889ebe008a96be00e00f540053
:10206000e08f5c00e00f5d00e08f5d000200340057
:102070000e00e000e0ff3c00cfb19700e88f510078
:1020800010003a000d1090000038a3000d0032003f
:10209000f70f570006003e00e4fc2f000e0242003e
:1020a000e4c07f0000c3b30080cf500005003200c1
:1020b0000e07e90000c3b300e1fc2f008e80400052
:1020c00080f07f0078011700920e98006d0090005c
:1020d000e3fc2f008f8141008e804100bef9070094
:1020e0001d0e90005d089000800f560006003d0018
:1020f0000c005000800e98000d1090000040a100d0
:10210000801698000f0037000000e0000d003d0031
:102110000d10900074006000f00f500009003a00ac
:102120007d089000fd009000010050008d08900097
:10213000010050000c0750004240a900010034008b
:102140008e0e98004f0778004f06be004f05be0068
:102150004f04be006f02b100000006000200e00064
:102160000500320090cf1000040032000000e800ab
:102170000201e900fbff3a000000eb00000006004e
:10218000889fbe0080047800010478003100900030
:102190000000d0004501de00f07f2000800f5100dc
:1021a00010003a00800ceb00310090006f006000de
:1021b00008003a00210090000000e00005003a000d
:1021c000110090000000e00002003a001100e00061
:1021d000020032002000200015003700100020000f
:1021e000130037000200e00005003c000100780009
:1021f000cf010700000178000000e0000a003c0069
:1022000038009000f10028000100600001fe23006a
:10221000010070003004980020c02f00800c4100a5
:102220000080eb0002003700800ceb000000eb00a8
:102230004f04be0000000600881f78008a9fbe0081
:10224000000478000205be00300190000200d000ba
:10225000c500de00f07f2000808f50000c003a00a7
:102260006f00610008003a00280090000000e000c4
:1022700005003a00180090000000e00002003a005b
:102280001800e0001c003200200020005d00370034
:102290000100e00006003a0008007800a4010700f1
:1022a000800078000000eb000100e00055003c00d9
:1022b0006108b9000a0540008b854800e07f2000d6
:1022c000800f5500e08f5d000d0034003800900055
:1022d0006022b8000600200007ff2f000000e00089
:1022e000030035006022b8000600200007ff270029
:1022f000049cbe000694be00100020004100370080
:10230000b8009000e00f5500e08f5d00050034003c
:10231000f000280000806000c450dd000100700063
:102320003600370000002800808260006f80600067
:102330000040a0003004980061055500e0855d0074
:10234000c0fc2f00f1ff2f00800f5500818f5d0032
:1023500006003d00350498000000eb0020049800c2
:1023600010049800000ceb00260037000a027800e9
:10237000f00f45000b003c0018009000000c7800a6
:102380002800900010049800380090002004980065
:102390000000eb003004980070024200f00f420091
:1023a000f5ff34000402ea00120032001801780040
:1023b0000411de00f0011200180090008300dd001f
:1023c000010c71000400de00280190008310dd0084
:1023d00001007000100498000411de003800900025
:1023e0008301dd0003017100220498000400de0077
:1023f0003004980038009000050070003004980008
:102400000080eb004f05be004f047800000006007e
:102410000400fa00889fbe008a9fbe008c9fbe0009
:1024200080bf9f0091bf9f000206be00b10507005c
:102430000001be000004be000c00be004d050700f8
:102440000fb997009fb99700000551008185590089
:102450000800be000a01be004f06be004f05be00c8
:102460004f04be000080fa00000006000a00fa00d7
:10247000889fbe008a9fbe008c9fbe00000478002b
:10248000014578008205780083047800040678000e
:102490000300e00002003c0019002000eb2e2100a8
:1024a00060c6b300804f55000e00320060c4b30018
:1024b000804f55000b00320070c6b300804f5500ae
:1024c0000300320070c4b300804f550083003a000f
:1024d000e40f46008100350058089000800f560038
:1024e0007e003d000c06e80060c6b300804f55003a
:1024f0001000320060c4b300804f55000d00320060
:10250000081090000038a30004003a00580890001a
:10251000808f540001003d00590c9800580890002d
:102520000c005000500c980002003b000000eb0033
:10253000500c98000c00e00027003c00f201440021
:10254000130178006800900001c3b30001707900a6
:102550000201e80082097800580890000000e000bd
:1025600003003c00081090000038a3000400320073
:10257000e8009000e0c2b300807079008209e800b2
:102580000c00ea00d8089000808f500001003d0048
:102590000106ea000c00ea00200c98000c804000c4
:1025a000500c9800890f500001003d008004780015
:1025b000680090009808900001004000390c9800d5
:1025c000090178008b00780083f807005808900014
:1025d000090050001a003700e80090001808900029
:1025e0008c8f540018003d000080400009017800e5
:1025f0008b00780078f80700180890000901400067
:10260000120c980009005600200c98005808900001
:102610000000e00003003c00081090000038a30018
:1026200006003200e8009000e0c2b300807079003c
:10263000380890000000e800300c9800580890001e
:10264000400c9800a3003700008040000c01780087
:102650008b00780060f80700180890000c0040001c
:10266000100c98008c845400580890000000e00082
:1026700003003c00081090000038a3000600320060
:10268000f20144009300780068019000e0c2b300ba
:1026900000f178008109e80058089000890f500087
:1026a00001003d00800478006800900098089000c8
:1026b000010040008c8045000901780046f80700c1
:1026c0001808900009004000100c9800580890006d
:1026d00009005000200c98007e00370070c6b3003f
:1026e000804f55000300320070c4b300804f550086
:1026f00014003a0058089000808f540004003d00f8
:10270000081090000038a30001003a00590c98000e
:10271000580890000000e900500c980002003b00af
:102720000000eb00500c980051c6b30070c6b30017
:10273000804f55000100320051c4b30001457800bc
:102740000900370010c6b300804f550002003a0060
:102750000ac7b3000400370010c4b300804f55000f
:1027600001003a000ac5b300f201440013017800e9
:10277000680090003b7079000201e800820978004f
:10278000580890000000e00003003c000810900092
:102790000038a30004003200e8009000e0c2b3005b
:1027a000807079008209e800580890000000e0007d
:1027b000100034008904e900890f500001003d0039
:1027c00080047800680090009808900001004000a4
:1027d000090178008b007800fff7070018089000c7
:1027e00009004000100c98005808900009005000a3
:1027f000200c9800e80090001808900080854000a8
:102800008a5d78008b06e8000c00e00004003500cb
:10281000b0c2b300804d78008d0578000400370009
:10282000d0c2b300804d78008d0578000c06ea0018
:102830008004eb000c00e00009003400a10020003f
:102840000c0078008d0007007681540001f17f00b4
:10285000000678008904e8000000e000f7ff3c0073
:10286000e18f540009003c0050c6b300804f550072
:102870000300320050c4b300804f550003003a00fb
:1028800000c3b300805e78008d0578000900e00089
:1028900002003a0000c3b300805d78000900e00048
:1028a000070034008904e900f680540061c07f000d
:1028b00002c3b300825d40000900e000f9ff3c0064
:1028c00068009000980890000100400000805500ca
:1028d000300c98000810900074006000f00f500059
:1028e0000e003a0078009000980890000100400027
:1028f000a808900001004000b808900001004000c6
:10290000c80890008100400078089000808f500037
:1029100002003d0001005000000c98004f06be0070
:102920004f05be004f04be000080fa000000060004
:1029300000027800300090000100280001036000d0
:10294000150020006f0060003002980008003a0077
:10295000240090000000e00005003a001400900000
:102960000000e00002003a001400e0003e003200e7
:10297000340090000000e0000b003a0024009000ba
:102980003002980014009000200298001400780093
:1029900010029800000aeb00f08252003400900010
:1029a0000000e000f5ff320034009000ef0f50000f
:1029b00014003e008001d000a40090004f08de000b
:1029c00080817100330298008100d00014019000d2
:1029d0004f10de0080807000210298000201d000bc
:1029e000940078004f08de00000171001202980088
:1029f000010ad0008502e90003007800ef8f510042
:102a0000ecff3600b4019000ff8f51001300360038
:102a10001401d10014009000cf00dd00010a710004
:102a20000000d100a40090004f09dd0002007000fa
:102a3000100298008100d1004f18dd0080807000e6
:102a4000210298000300d100300298008502e800be
:102a500080017800ff0f5000edff3e003400900031
:102a60006f00600030029800340090000600700093
:102a7000300298000500780000000600010178008f
:102a800000027800110009000200d8000002fd00d9
:102a90000491b900820250000400be00000006004c
:102aa0000c02e20004003d000f42ab0002003200c5
:102ab0000f02ab00feff32000040da00feff3700dd
:102ac000889fbe00800478009e12e20005003a0054
:102ad0000000eb00100007008080eb000000e00029
:102ae0000a003500f8948000880078000900e000b2
:102af0000600320009004400070007008080eb0058
:102b00000000e00001003500880078000100780036
:102b10004f04be0000000600800078000001eb00ba
:102b20000000e00003003a00002f2100f09488002c
:102b300006003700004f2100808f500002003e0049
:102b4000f1948800010037000081eb00020078005a
:102b50000000060003f0a200889fbe008a9fbe000e
:102b60008c1f7800e9010700f00133006450e10098
:102b70004f0032006420e1005200320003826c00fa
:102b800007003b000905d0000306d000820f540067
:102b90000c065d0002003900020032008901780055
:102ba000030678008582550004003d000003fd0007
:102bb0008103fd008502ea008b854200840f7200cc
:102bc00002003b0060001000e08018006011b800b7
:102bd0000005eb007a28e1000a00390006007800c1
:102be000c75ddd00f707b200878075002d00370054
:102bf000828171000a017800610560008180d10046
:102c00000080d3008502e900f9ff3b000604400084
:102c10008784480002003b0060041400e0841c002c
:102c20000988a300070032008a8171008281710047
:102c3000610164008904d1000884d3008b05e80099
:102c4000170037000978a30013003a000b00e000da
:102c5000130034008b05e9000804440089844c000b
:102c60000a4474000978a3000d003a000b00e0004c
:102c7000070034008b05e9000804440089844c00f7
:102c800001003a000b0020000978a300f7ff320092
:102c90000001eb0002003700828171000a01780018
:102ca000b20107000cf0a70001f0a000a801370056
:102cb0006420e10002003a00838f6c00a801330019
:102cc0000801be000200be00a1013700889fbe00bf
:102cd0008a9fbe008c1f78008c010700930133008f
:102ce00003866c006450e100240032006420e1009f
:102cf000270032006150e100220032006120e10033
:102d0000210032008b854200eb07b1000134b8008e
:102d1000003ab8000804420089844a00013ab80029
:102d20000030b8008880400009014a0004003300e8
:102d30000000400081804800020149008b05e90045
:102d4000c909dd008301700001003200130020007a
:102d5000c814de004814dd004709de001200b2008e
:102d6000c808de00088470008001070001f0a1009f
:102d70000cf0a70001f0a000750137006120e10010
:102d8000770132000801be000200be00f7ff3700e5
:102d90006150e100fcff3a0071013700889fbe00de
:102da0008a9fbe00010578000100e00004003500a4
:102db00008003c000000e000200032000500370061
:102dc00060001000e080180002003b0001f02c00c1
:102dd0001a0037000004be006011b8006b09200023
:102de0000982cf00020039000882cf000441b00000
:102df000694252000e00320008003b0082817100df
:102e0000610164008904d1000884d3008b05e800c7
:102e10000442e800f9ff3a000500370008044400c6
:102e200089844c008b05e9000442e900fbff3a006d
:102e30004e0107000af0a70001f0a0004f05be00f8
:102e40004f04be0000000600889fbe008a9fbe009f
:102e50008c1f78002d0107003401330003866c00bd
:102e60006450e1002e0032006420e10033003200a3
:102e70006150e1002f0032006120e100310032009a
:102e800085855500eb07b0000900200008042000ec
:102e9000050037000804440089844c000a00310012
:102ea0000603430087834b000001530081815b00d0
:102eb000f8ff33000203be000800a000080444002d
:102ec00089844c00f6ff3900c639dd0083017300a8
:102ed00001003200130020008904d1000884d300cf
:102ee0000998a300050032000800a7000300a00015
:102ef0008904d1000884d3008b05e8008904d1003f
:102f00000884d3000001eb000281d2001701070002
:102f100001f0a1000cf0a70001f0a0000c013700a7
:102f20006420e1000e0132000801be000200be0074
:102f3000f7ff37006120e100090132006000b800ae
:102f4000f3ff37000000200001f82700f0ff3700f2
:102f50000001be002b0107000470a70003f0a100d0
:102f600003f8a30013003a006509b1001000320015
:102f7000090035006928e100020035000100280041
:102f80000000050000004000818048008502e90043
:102f9000fcff3a0000000600f88f420005003500f3
:102fa0008100d1000080d3008502e800fcff3a00d8
:102fb000000006008000eb00000005000081eb002f
:102fc000250137000001eb00230137000001be009e
:102fd0000c0107000470a70003f0a1006509b1000f
:102fe000160032000d0035006828e10006003500ab
:102ff000f0ff2f00f1ff27000300e00013003b006b
:103000000100280000000500000040008180480009
:103010008502e900fcff3a0008003700f88f420003
:1030200002003c008000eb00000005008100d100a0
:103030000080d3008502e800fcff3a000300e000b6
:1030400002003b0060001000e08018000000060055
:10305000f4ff2f00690137001400200067013700da
:10306000889fbe008a9fbe008c9fbe007e01070025
:10307000850478000005be006420e10049003e00a0
:103080006220e10003003200090035000bf8a300c4
:10309000440032000bf8a3000800320010022000a8
:1030a000c0948800f0ff2f00f1ff27003d0037009b
:1030b00001f82f00000020003a0037003d00070013
:1030c000a4fe07000006be000a00be00324f20002a
:1030d00053f32300deff0700060034000c00be009f
:1030e000340007009bfe07000006be000a00be0079
:1030f000020037008904e9000c00be002d00070023
:10310000f2fe07002b00070093fe07000001be003f
:103110000c00be004cff07000005be000001be0011
:10312000eafe07000006be00a2f32300430d2c00b8
:1031300089fe0700809fbe000c00be00d2e327007e
:10314000d3f02b00e1fe07004f01be003eff070059
:103150000006be000a01be00dcfe07000a01be0038
:103160007dfe07000006be006148b9000bff0700a6
:103170000005be0032082800e3952b00d3fe0700af
:103180000c01be0074fe07000006be000a00be006f
:103190000200280013f32300ccfe07000c01be0040
:1031a0006dfe07004f06be004f05be004f04be0077
:1031b0000000060003f0230002000500889fbe0007
:1031c0008a9fbe008c1f78000004be008d0007009f
:1031d0000478a30026003a006120e10025003200b7
:1031e00009f8a30025003a006420e1002100320024
:1031f000f507b1000508a3000200320000004000fe
:10320000818048006044b8000310200002002000c4
:1032100000004000818048000805440089854c007a
:103220000a0541008b8549000a0550008b8558002e
:10323000030033000a00be0002047400838474009b
:103240008301d1000281d300830f7100f0ff3a00a7
:103250008904d1000884d30060014900820178000c
:10326000c1adde00fb07b0004000070038003700aa
:103270000960a0000800be003500370012022000df
:10328000c2948800f0ff2f00f1ff270030003700c4
:1032900004002000d9003700889fbe008a9fbe002e
:1032a0008c1f7800190007001002200002003b006c
:1032b000c09488001d0037008a0062006408e100a5
:1032c00002003a00c0948800250037006108e10040
:1032d000fcff32000800be0003047800dafe07009d
:1032e00001f0a100ed00070008f0a600040037007f
:1032f0000001be0091042400b0fd200015fe07006f
:1033000009f0a70001f0a200110037000004be0080
:103310003c0007000003be000405be000200be0022
:1033200038000700844f7500000006000200be0050
:103330006450e100050036006420e1000200360020
:103340000968a30001003a000800be000160a00067
:103350004f0678004f05be004f04be000000060077
:10336000f0ff2f00f1ff2700f9ff37008100200058
:10337000618055000b003d000b00200061fe2f0016
:103380000100e1001d0034008281710061016400d0
:103390008904d1000884d3000000e800faff3a0055
:1033a00071002000610064000300700002006000f2
:1033b0000900320061044400e0844c000988a50043
:1033c000050032008b05e8006808e10002003a00c1
:1033d0008904d1000884d300f20f20000258e100d4
:1033e00005003d00c75ddd00f907b200898075006a
:1033f00008007800000006000bf827008b0078001a
:1034000000000500c70ade00f107b200f50fb200a8
:1034100008003200e1cf4200020032000170a0003b
:1034200024000500810f700001003200040805002f
:1034300044000500810f700002003a0014000500ee
:103440008502e9000000400081c04800fcff3b000d
:103450000170a00024000500889fbe008a9fbe0066
:103460008c9fbe00820578000004be00e5ff0700c7
:103470000800be006420e1000700390002003a00a5
:10348000f1ff2700f0ff2f000160a00012022000d2
:10349000c2948800550037006120e10003003a0023
:1034a0000b00a70001f823005000370001f0a10035
:1034b0000200210093642400e7fe07000800be001c
:1034c00004003500b2fd2000930c2400d800070052
:1034d0000004be000005eb000b00a6004f0dde004f
:1034e00001f0a1000004be0032982f0023ea23005f
:1034f000f6fd07000001eb0003f023000b00a7001e
:1035000003f8230094fd0700b0fe07000000a700a9
:103510000a00a20021fe07000b00e00003003200b9
:103520000200200003f023008afd070001f0a20042
:103530000006be000200200093042400e3fd070003
:103540000801be0084fd0700809fbe000c00be0085
:1035500022a22a00d3a72300dcfd07004f01be00f2
:103560007dfd07000004be0001f0a1000200200064
:1035700003982300b8fe07000800be0019003500bc
:103580000001be00d1fd07000006be00b2c5290043
:10359000e3622300cdfd070022222b00f3942b00d1
:1035a0006dfd07000c01be00c8fd0700e273280096
:1035b00083c0230068fd07000c01be00c3fd0700a7
:1035c00042aa2a00a3e22b0063fd07000c01be0003
:1035d000befd07000801be00bcfd07000801be00db
:1035e0005dfd07000a00a70001f0a2004f06be0023
:1035f0004f05be004f04be0000000600889fbe00bd
:103600008a9fbe00841f780040ff07004f007800ab
:1036100011003300f0ff2f00838f6c0006003b0089
:10362000040565000a00a7000800370009f0a6009d
:103630001000200008003700820f5400838f5c00c8
:10364000030039001000200001003e0000002000af
:1036500009f0a7000000ea004f05be004f04be00bd
:103660000000e000000006000003be0065ff070048
:103670006220e100020032000600be0005000500e5
:10368000e507b100f107b20004f023008480700068
:1036900007f0a70001f0a00024000500889fbe00ed
:1036a0008a9fbe008c9fbe000004be0055ff07002d
:1036b0000800be00890678006420e1000800390097
:1036c000040032000160a00012022000c2948800b1
:1036d0005300370091fc2300b0fd20004e0037005e
:1036e0000006eb0009f0a10003f82300020020000f
:1036f0000800be0058fe07000600340001f8230051
:10370000000020000801be00cffd07000004be003d
:103710002c0020000800be0093e82300320a23009a
:103720004dfe0700120034000801be00d1fd230049
:10373000703d2b0008fd07000005be00b3f3230019
:10374000f27a26000800be0060fd070003f823009f
:1037500002002000fffc07000801be00fefc07007d
:103760000a01be00b8fd07000004be000c06e80018
:103770000800be0001f0a100020020000398230011
:1037800035fe07000800be00160035000801be0027
:103790004efd07000005be0032cd2c0043fb230088
:1037a000edfc0700809fbe001269280003d52b00a6
:1037b0000a00be0045fd0700620f210013ef2b0039
:1037c000e5fc07000a01be0040fd07004f01be00f6
:1037d0009dfd07000801be003cfd07000801be007a
:1037e000ddfc07000c00e0000b0032000c10a7000d
:1037f00001f0a200b2fd200093fc23006260e10012
:103800000400320022a9200063f023000c10a7005e
:1038100063f82300d0fc07000df0a70001f0a20020
:103820004f06be004f05be004f04be00000006005c
:103830000400200000003700889fbe008a9fbe0061
:103840008c1f78004f26dd00b0fe0700b7fe330066
:103850006120e100430032006250e10041003e007f
:103860003e0039006420e1003c0032000582550032
:103870000f003b000402e80038003a00800f5300bc
:10388000818f5b00350034000800be0003f0a1000a
:1038900001f0a60003f0a0000cf0a700aefc0700aa
:1038a000abfe37000603430087834b000c464600ff
:1038b0000005530081855b00020033000a03be004f
:1038c0000c00a0000402e900f6ff3b00850578002b
:1038d0000602430087824b0004003a006000b800f3
:1038e00009f0a70001f0a00099fe37000002520085
:1038f00081825a000704e0000400330006034300fd
:1039000087834b008b05e900faff37000905780033
:103910000604be000203be006011b80093fe07005b
:10392000e00f5200e08f5a000700350002003c0013
:103930000c08a300040032000601be0003f0a00042
:103940000cf0a70084fc07000a85680001f0a100c4
:103950000af0a70001f0a0007dfe37000800be00bd
:103960007bfe3700100220000cf0a600c0948800f7
:103970007bfe3700020ab900001bb9000200b80044
:1039800081004200810043000000060081037800ae
:103990009cfe07000001be006000b8000478a30090
:1039a00013003a006220e10015003e000d003900ce
:1039b0008301d1000281d3008180d3008301d10033
:1039c0000281d3008180d3008301d1000281d30022
:1039d0008180d3000538b000c42add00f300b200b6
:1039e0008381720007f0a70003f0a000000006002a
:1039f000f3ff2700f2ff2f006110b900fbff370033
:103a000003ff2700f7ff37008f1fd1008a0207004e
:103a10008f87e9000000e000000006001400fa00b3
:103a2000889fbe008a9fbe008c9fbe000004be001f
:103a30000205be00680047000a90be000890be0064
:103a4000a60207000070a7000bf0a1003043200081
:103a50009e02900080825200b0fe2f000028e100fc
:103a600011003d00b0fc2f000028e10015003400db
:103a70001e0990008e0890007e0090000501b000a5
:103a80000201d1008180d3000080d3008502e800cc
:103a9000fbff3a000b00e000cb023b00600010008f
:103aa000e0801800c8023700f0ff2f00f1ff270068
:103ab0000b00e000c4023b000100280000002000d1
:103ac000c10237006000b800bf0237004f89de0036
:103ad00082017800c102370007f0a200f602370029
:103ae000809feb00540207008f87e9000000e00090
:103af00000000600839f68000100e00002003d0016
:103b000060001000e08018000300e00002003d00ab
:103b100060011100e0811900640307004f00e0001c
:103b200002003b0060001000e0801800000006006a
:103b30002800fa00889fbe008a9fbe008c9fbe00ae
:103b400003866b008c0207000028a30064003a0083
:103b50000128a30067003a000008a30062003a00b1
:103b60000108a30065003a001e009000be08900006
:103b700081064000ed3fb100f4805700ee01900057
:103b8000111ab8008e099000311bb8009e099000f0
:103b9000311cb800511db800f485570046000700dd
:103ba000fe0190003a0007008b85e8003e00070008
:103bb0008e09900040000700ee01900034000700dd
:103bc0008b85e800380007008e0990004000070050
:103bd0009e0990001b18b800890440000a8548001f
:103be000fe019000340007008b85e80038000700d4
:103bf000ee019000300007008e0990001b18b800fd
:103c0000890440000a8548000a98a30008003a0089
:103c10000402420085824a0006034b0087834b0062
:103c200008044c0089844c000a054d008d06e9000b
:103c300084827200850273004c3add0085027200b6
:103c40000100320015002000443ade001400b200ea
:103c50004538de00cb45dd000b007000c540de00be
:103c6000cb4ddd008b8070004549de00cb55dd007b
:103c70000b017100c551de000d0378001b03070026
:103c800003f0a1000cf0a70003f0a0004e023700e3
:103c90001b18b8008502400006834800e0834b00f3
:103ca00060044c00070037001b18b80006034000f2
:103cb00087834800faff37001b18b80087034000cd
:103cc00008844800e0844c0060054d0000000600b8
:103cd0001b18b8000804400089844800faff370028
:103ce0000108a30035023a005800be005801be008a
:103cf000e3ff37000008a30030023a00090478000f
:103d0000f9ff37002800fa00889fbe008a9fbe0096
:103d10008c9fbe0003866b00170207006400e10061
:103d2000440032006408e1004a0032006100e10012
:103d3000460032006108e10049003200ec0647000d
:103d40006000b8003d02be003d03be00f48657008f
:103d50006011b8003d04be003d05be007d0320009b
:103d60000b0037000000a0008d06e90013003200b0
:103d70000402420085824a0006034b0087834b0001
:103d80000000400081804800020149008381490011
:103d90000802520089825a000a035b008b835b0091
:103da000f0ff3b000802420089824a000a034b00f0
:103db0008b834b008d06e900edff3a008482720090
:103dc00086827200f707b20087827200010032001b
:103dd000150020001e0490003e0b900006035400c6
:103de000e63fb0000368a300070032000000a70010
:103df0000500a0008301d1000281d3008180d3009f
:103e00000080d3000603e8008301d1000281d300c3
:103e10008180d3000080d3000002eb000482d20036
:103e2000b202070003f0a1000cf0a70003f0a0000d
:103e3000e5013700640247006408e100df01320059
:103e40003400be003401be00f6ff37006108e10017
:103e5000da0132006011b8006000b800f1ff3700ed
:103e600003ff270002002000fbff37006000100066
:103e7000e080180060011900e081190000000600d0
:103e8000881f7800000478005001be004000be008a
:103e90000000420081804a0002014b0083814b00f8
:103ea000009cbe000294be00dc000700030031004d
:103eb000480090000000e800400498004f0478009b
:103ec00000000600889fbe00000478008004eb001c
:103ed0005001be004000be00d000070001003100cc
:103ee0001900200004005000858058000601590088
:103ef00087815900009cbe000294be0048009000db
:103f000009005000400498004f04be000000060065
:103f10001200fa00889fbe008a9fbe008c1f7800a6
:103f20000205be000004be00f4b79f0085bf9f00dd
:103f300096bf9f00a7bf9f000000eb00e0b79f0067
:103f4000d0b79f00c0b79f00b0b79f00a0b79f0039
:103f50000006eb005fb197006fb097008000d000c3
:103f60000000e00015003d00e1b79f00010078006f
:103f70000200e00001003d000000a000ac000700ce
:103f800001003d000000a000af00070001003d005f
:103f90000000a000b200070001003d000000a000ea
:103fa0008100070001003d000000a000b2000700f2
:103fb0007c805700b2ff070014003700e1b79f0074
:103fc000010078000200e00001003d000000a000b8
:103fd0009700070001003d000000a0009a000700c4
:103fe00001003d000000a0009d00070001003d0011
:103ff0000000a0006c00070001003d000000a000d0
:104000009d0007007c805700aeff07006fb097004f
:104010000000e00007003500100020000100200033
:104020006011b80008047000898470000a057100ee
:104030008b8571000c06e800f0032000800f56000d
:10404000c4ff34006fb097000000e00006003d00a0
:104050007fb297008fba97001fbb9700afbb970046
:104060007c80570086ff07000802be000a03be00de
:104070006fa897000000e00004003a002fb29700fc
:10408000bfb297004fb39700dfb397000400be00a4
:104090000601be004f0678004f05be004f04be006b
:1040a0000080fa0000000600881f78001800200039
:1040b000881f780096ff07008f87e9004f0478007b
:1040c00000000600801feb0091ff07008f87e900ca
:1040d000000006000800fa00889fbe008a9fbe000c
:1040e0008c1f78006e00070005003d0043000700ac
:1040f000300007000c003d00330007000b003700c4
:10410000e00f5200e08f5a00e00f5b00e08f5b0091
:1041100006003d000400be000601be0053ff07007c
:104120000205be000004be001c0020002c00070099
:10413000ddff07000c00e000010032004bff07002c
:104140004f0678004f05be004f04be000080fa0005
:10415000000006000800fa00889fbe008a9fbe008b
:104160008c1f78004e00070002003d001c0020005c
:10417000220007000f00070001003d0012000700a9
:1041800017000700cfff07000c00e000010032001d
:1041900036ff07004f0678004f05be004f04be00f3
:1041a0000080fa000000060090b79f000100d000d8
:1041b00080b79f00e00f5400e08f5c00e00f5d00cf
:1041c000e08f5d00000006000800be000a01be008e
:1041d00026ff07000205be000004be000000060026
:1041e0000802be000a03be005fb09700efb0970060
:1041f0007fb197008fb99700000006001bff0700f2
:104200000100070000000600b0b79f00c1b79f0083
:10421000d2b79f00e3b79f00000006000400e10052
:104220000588e1000690e1000798e1000000060023
:10423000c0b79f000200d000b0b79f00afb097009a
:104240000100e00000000600b0b79f000100d000b0
:10425000a0b79f009fb097000100e000000006009b
:10426000a0b79f000100d00090b79f008fb09700cb
:104270000100e0000000060080b79f000804d000a5
:104280008984d2000a85d2008b85d2005fb2970064
:10429000efb297007fb397008fbb97000000060036
:1042a000d9ff07000605be000404be000006eb00af
:1042b000e00f5000e08f5800e00f5900e08f5900e8
:1042c000000006000800fa00889fbe008a9fbe001a
:1042d0008c1f7800f0b79f0081bf9f0092bf9f00a6
:1042e000a3bf9f006044b8006055b8000006eb0013
:1042f0000408a300080032007fb097008fb8970031
:104300001fb99700afb9970008044000898448009e
:104310000a0549008b8549008703d1000683d30035
:104320008582d3000482d300100020000100200009
:104330006011b80008006000898060000a01610017
:104340008b8161000000e000070032006000b800cf
:104350000200200003002800040270008582700023
:1043600006037100878371008b05d1000a85d30095
:104370008984d3000884d3000c06e800f0032000f1
:10438000800f5600daff34000400be000601be00b4
:104390004f0678004f05be004f04be000080fa00b3
:1043a000000006000800fa00889fbe008a9fbe0039
:1043b000170007000605be000404be00e00f52000f
:1043c000e08f5a00e00f5b00e08f5b0008003d00cb
:1043d0000400be000601be00a4fe07000205be00e8
:1043e0000004be000f000700a0fe07000800070041
:1043f0000802be000a03be000a000700b1ff070062
:104400004f05be004f04be000080fa000000060009
:10441000e0b79f00f1b79f0082bf9f0093bf9f004e
:10442000000006006fb09700ffb097000fb997002b
:104430009fb9970000000600889fbe008a9fbe00bb
:104440008c9fbe000404be000605be00809fbe0017
:10445000829fbe0051010700040678000800be00dc
:104460000a01be004d010700840678004f03be001c
:104470004f02be008d4f76007fb0970013003300cf
:10448000f0ff2f008b8f6b0006003b000d066600cf
:104490000c00a7000a00370007f0a600100020005b
:1044a0000a003700880f5200898f5a008a0f5b007c
:1044b0008b8f5b00030039001000200001003e00dc
:1044c0000000200007f0a7000000ea004f06be0031
:1044d0004f05be004f04be000000060080007800bb
:1044e0005002be005003be004439de00f700b200a7
:1044f000f37f200003016100090032000218e1008f
:1045000016003a00850172008301730083817300f5
:104510000008200015003a0040002000130037007a
:1045200085017200830173008381730005003a00e6
:1045300004a8be0006a8be00100020000b00370033
:104540000201e9000402420085824a0006034b0092
:1045500087834b000748a300f9ff32000740a00003
:1045600004a8be0006a8be0020002000800098001d
:104570009200980000000600680447000294be0004
:104580000094be00fc0447008694be008494be00e4
:1045900009007800d1ff070008007800cfff07006e
:1045a00099007800814f70000b003b000800be00ae
:1045b0000c0107004f00b10003003700f3ff270094
:1045c000f2ff2f006110b9004f06be004f05be007c
:1045d0004f04be000080fa0000000600889fbe0065
:1045e000830478000300e0002c00350003003c0049
:1045f0000082700004027100260032003643200061
:10460000c50020008383cf000a0039000541b100b6
:104610008283cf00070039000541b1008183cf00bc
:10462000040039000541b1008083cf00010039004a
:104630000541b10085c353006022b800120032006a
:104640000a003b0084827200610260008301d10095
:104650000281d3008180d3000080d3000603e800ec
:104660008743e800f7ff3a000700370000004000ea
:104670008180480002014900838149000603e90066
:104680008743e900f9ff3a009800070009f0a70006
:1046900003f0a0004f04be00000006006000100000
:1046a000e080180060011900e0811900d3ff3b0091
:1046b000033e2c00f7ff37002800fa00889fbe0059
:1046c0008a9fbe008c9fbe0007067800878669001f
:1046d0000c003b00030478008704780008f0a10078
:1046e00009f0a100840f5000858f5800860f5900f3
:1046f000890f5c00030033000cf0a20001003a00b7
:104700000cf0a1009cff07006400e1005f00320094
:10471000780147006408e100610032006c01470045
:10472000748557003200be001201be003a04be007c
:104730001a05be001e039000be0a900085035300b8
:1047400006003d000004fd008104fd000205fd009f
:104750008305fd008703ea00050378000df8a30038
:104760000400320060041400e0841c0060051d0099
:10477000e0851d006022b8007d0320000d38e100b7
:104780008006eb000b0039004433dd00f300b2007b
:104790008301730039003700848272000d027800b3
:1047a000e10664008b85d1000a85d3008984d3009b
:1047b0000884d3008703e900f7ff3b0008004000ae
:1047c000898048000a0149008b81490004003b00b0
:1047d00060001000e080180060011900e0811900fd
:1047e0000358a300090032008d8272008482720097
:1047f000610260008301d1000281d3008180d30077
:104800000080d3000603e8001b0037000348a30024
:1048100017003a000600e000170034000603e90024
:104820000d00a300000048008180480002014900fb
:10483000838149000348a3000f003a000600e0000e
:10484000090034000603e9000000400081804800b0
:10485000020149008381490001003a000003eb0096
:104860000348a300f5ff32006022b80002003700c1
:1048700084827200618266001c00070003f0a100c0
:104880000cf0a70003f0a0004fff370064014700c1
:104890006408e10002003a000df8a30047ff3a0067
:1048a0003200be001201be0047ff37006022b80090
:1048b000060220000000d0008180d2000482d200d5
:1048c0008582d2000000a0000202520083825a00ba
:1048d00003003b000202420083824a000000a10064
:1048e0000603e900f3ff3a0000000600180020006c
:1048f00057002000080453000d003d000600200072
:1049000097fc2f000740e1001e00340084827200f3
:10491000610260008301d1000281d3008180d30055
:104920000080d3000804e800f8ff3a0047002000a8
:104930006104600005047400040464000d0032008a
:1049400061004000e080480060014900e0814900ca
:1049500003b8a500070032000603e8006538e1004f
:1049600004003a008301d1000281d3008180d3008a
:104970000080d300f87f20000830e10003003500fc
:10498000080378006000b8006011b8004433dd000f
:10499000f300b200830173000000060005ff27004a
:1049a00005826100070032000428e10001003200a6
:1049b000240005000600070001003a00440005003d
:1049c0000408050002000700f9ff3a001400050082
:1049d0006f826100810270008502710085027200a1
:1049e00000000600e48240001078a30007003200b7
:1049f000640240001178a3003400be001401be0020
:104a0000040032000330a700000006003500be009d
:104a10001501be000330a000000006000e00fa00e1
:104a2000881f78006000b800008fbe006000b800ea
:104a300020079800310798001000200060079800b8
:104a4000a600070000042000940007006a16070073
:104a5000f41607003c1407000040eb002cf0b700f0
:104a60002c50e200feff3200000000006e009000bb
:104a7000630060000000e00003003a0062060700e7
:104a80001000200060079800f07f80000180800007
:104a90005080880061808800108080002180800024
:104aa0007080880081808800308080004180800094
:104ab00090808800a1808800de0090004e00900069
:104ac000eb01070059060700f9030700317d80005c
:104ad000800020000008b80062fe200002044000b0
:104ae0005280800063808000f07f80000180800021
:104af00018f80700f2ff2f009317240073f807003f
:104b0000008cbe00317d8000800020000008b800cd
:104b1000a2fe20000204400072808000838080009a
:104b200010808000218080000af80700f2ff2f002b
:104b30009317240065f80700008cbe0002040700ec
:104b4000e40047000e007800fb000700ea00470081
:104b5000680047002e029000be0290001e01be00b9
:104b6000e90207006800470001322000de0007006c
:104b70006a00470001322000db0007004e00900071
:104b80001f0e07005e0090005a0e07006e00900096
:104b90000000e80060079800000420003f000700c4
:104ba000b2ff37000200fa00e7c2bf000080fb003e
:104bb0000000d1000080fb0061006000000f780061
:104bc0001e0078000000d000000f7800e7c2bf0090
:104bd0000080fb00610060009e0078008080400043
:104be000010f78001e0078000000d000000f780050
:104bf000e6c2bf000080fb004700de000080fb0033
:104c00009e00780080804000010f78001e00780030
:104c10000000d000000f7800e6c2bf000080fb005b
:104c20004600de000080fb00610060009e0078000e
:104c300080804000010f78001e0078000080fa009c
:104c4000000006000000fa002c50e20007003a00c5
:104c50000040eb002df0b7000000eb005081880011
:104c600010c0b3002cf0b700050037005081800061
:104c70000000e8005081880010c0b3002df0b7009c
:104c80000080fa00000006000000fa0010c0b30027
:104c90002ef0b7000080fa00000006000200fa00c3
:104ca000000f78000040eb002ef0b7009e00780067
:104cb000a00020000008b8008000780040642200b6
:104cc000fa0b07002e50e200feff32004064220083
:104cd000270c07000080fa00000006000200fa001e
:104ce000970b0700861107000d070700240907002e
:104cf000ba0d07000000eb00508188000040eb0077
:104d00002cf0b7000040eb002df0b7000040eb00a6
:104d10002ef0b700d00b07002d130700813e2000b6
:104d200020622200e10b07009eff0700307d880013
:104d30000000eb00000f7800200020009e0f100004
:104d400041003c009e007800800020000008b80070
:104d5000a3fa2000030140006000b8000089be00f3
:104d60009e007800800020000008b800e3fa2000d0
:104d7000030140006000b8000089be009e0078007a
:104d8000800020000008b80023fc20000301400040
:104d90006000b8000089be009e00780080002000fe
:104da0000008b80063fc2000030140006000b80068
:104db0000089be009e007800400020000008b80076
:104dc000a3fd2000030140006000b8000089be0080
:104dd0009e007800800020000008b80063fe2000dc
:104de000030140006000b8000089be009e0078000a
:104df000800020000008b800a3fe2000030140004e
:104e00006000b8000089be009e00780040002000cd
:104e10000008b800e2012100820040000000eb0021
:104e2000800878009e007800400020000008b8004c
:104e30000302210083004000100020008008780059
:104e40001e0fe800bcff37000000eb00000f7800e9
:104e5000200020009e0f100010003c009e007800f3
:104e6000400020000008b800e3ff200003014000dc
:104e70006000b8000089be009e007800400020005d
:104e80000008b800a3002100030140006000b80042
:104e90000089be001e0fe800edff3700a29929002f
:104ea00093e12300f07f80000180800029f7070054
:104eb000b0808800c18088006000b800d080880081
:104ec000e1808800a60fe20003003a000000eb003a
:104ed000407d88000200370010002000407d8800df
:104ee0000080fa00000006000400fa00000f7800bd
:104ef000110798009e0078001e009000910f10008e
:104f0000030034001e0078009e0090000108780025
:104f10001e0078009e0090008100ea00908f100033
:104f200003003d009e0078001e0090008008ea000b
:104f30000080fa00000006006600fa00881f780072
:104f4000000f7800110798006400470081382d0099
:104f500030279800412798003e209000ce209000f6
:104f60000f00090031187800400220000e004000b8
:104f7000502798005e219000070009000019eb00ff
:104f80000000eb00201f98006000b800301f980060
:104f9000411f98006000b800501f9800611f9800e2
:104fa0006000b800701f980001279800d0cc2c003a
:104fb000c1e4230010279800212798000000eb008f
:104fc000201f98002e189000e70f50009d003c0015
:104fd000410220008e8040002e1890000000d0007a
:104fe00001004000602798002e1890006112070011
:104ff00070279800fe2190000300e00003003d00b0
:105000007e2090000000ea00702798007e2190002a
:10501000ee20900082087800410220008e8040003f
:105020002e1890000000d0008100400000052000f4
:10503000910f10007f003600410220008e8040005a
:105040002e1890000000d00001004000002f9800b2
:10505000410220008e8040002e1890000000d000f9
:105060000104400018007800cf80de004bf70700f5
:10507000102f9800212f98001800e00007003d0035
:1050800002002000037824001e289000ae28900023
:10509000b1f60700102f9800212f98001e219000d4
:1050a000ae2190007e1890008e2090003101070004
:1050b00002002f00f357240004f70700020020002d
:1050c0000300240060f707000001be001e289000c6
:1050d000ae289000a0f607009df707008e299000eb
:1050e0008009780064014700ae189000400020005d
:1050f0000008b800000041001000be00aff7070034
:10510000302f9800412f9800410220008e804000ef
:105110002e1890000000d000010440001800780014
:10512000cf80de001df70700502f9800612f9800f8
:105130001800e00007003d00020020000378240072
:105140005e289000ee28900083f60700502f98000c
:10515000612f98005e299000ee2990003e28900073
:10516000ce289000d9f6070002002f00f36f24002c
:1051700035f707000001be003e189000ce189000e1
:1051800075f60700301f9800411f98006401470022
:10519000ae189000400020000008b8000000410058
:1051a0001000be0087f70700702f980001379800a5
:1051b000410220008e8040002e1890000000d00098
:1051c0000104400018007800cf80de00f3f60700ed
:1051d00010379800213798001800e00007003d00c4
:1051e00002002000037824001e309000ae309000b2
:1051f00059f6070010379800213798001e319000ab
:10520000ae3190007e2890008e309000aff60700ff
:1052100002002f00f36f24000bf707000001be000f
:105220005e189000ee1890004bf60700501f980093
:10523000611f98002e1890000000e800201f9800c1
:1052400060ff37001e0078003e199000ce199000d4
:105250000288be001e0090005e199000ee199000ba
:105260000288be004f0478000080fa0000000600ab
:105270001e00fa00889fbe00000f780011079800fa
:10528000fa0c0700200798000000eb00fb0c070059
:10529000000d0700300798000000eb00010d07002b
:1052a000ae0090003e009000008050000000d00052
:1052b000cf80de00b9f60700325c2f0083042400a3
:1052c00082f60700e2f92e0073ca23007ff607007a
:1052d00002002000a3472400dbf60700400f9800df
:1052e000510f980042df2f0043d523004e08900055
:1052f000de089000d4f60700000f9800110f980008
:105300000e0890009e08900030f70700600f98008c
:105310006e0890000000e00003003d00ee089000e1
:105320008100ea00610f98006e0990006110b900d9
:105330009af60700d2cc2c00c3dc230044f7070008
:105340000000e00026003500ae0090003e00900016
:1053500000804000cf80de0090f607000004be0011
:105360000e0890009e0890000001be00faf50700ac
:105370000001be000800be00b3f60700200f980031
:10538000310f98000e0890009e0890000bf7070060
:105390000001be000000200001f82300edf5070029
:1053a0000001be002e089000be08900047f60700de
:1053b00040079800510798000e0890009e08900042
:1053c00000f707000001be002e089000be08900004
:1053d0003ef607006007980071079800120037003a
:1053e0002e0090000000d000cf80de006bf607009a
:1053f000325c2f008304240034f60700e2f92e000b
:1054000073ca230031f6070002002000a3472400de
:105410008df6070040079800510798006000b8001b
:105420006007980071079800f07f8000018080007d
:10543000508088006180880010808000218080007a
:1054400070808800818088003080800041808000ea
:1054500090808800a18088004e019000de019000bd
:10546000f07f800001808000bbf50700f07f88009e
:10547000018088006e019000fe0190001080800085
:1054800021808000b4f5070010808800218088000a
:105490000e0990009e0990003080800041808000bd
:1054a000adf507003080880041808800325c2f0015
:1054b000830c24003080800041808000e4f60700e7
:1054c0000000e00007003400325c2f00830c240051
:1054d00030808000418080009ef507003080880089
:1054e000418088006011b8003080800041808000d9
:1054f000d9f607000000e00007003d00325c2f00f5
:10550000830c2400308080004180800092f50700e9
:105510003080880041808800a299290093e123000f
:10552000f07f8000018080008af50700b08088004d
:10553000c18088006000b800d0808800e1808800c9
:10554000b0808000c1808000809fbe00803a2d0026
:10555000801f7800000321007deb0700e6875700dd
:1055600000032100a60c07004f04be000080fa00d3
:10557000000006001800fa00889fbe00008fbe00e1
:105580002207980033079800a40fe20007003200ba
:10559000007d8000117d8000200f9800310f980061
:1055a0000000eb00207d88004d00370079eb0700fc
:1055b000cf80de00f9f507000001be0066f50700a8
:1055c00002e02f00f36f24001ff607000200200006
:1055d00003f823005ff50700400798005107980083
:1055e0006ceb0700cf80de00ecf507000001be0089
:1055f00059f5070002e02f00f36f240012f60700b0
:105600000200200003f8230052f50700600798000d
:10561000710798004e019000de0190004e0090004e
:10562000de009000a9f507000004be006e019000a6
:10563000fe0190006e009000fe009000a3f50700b0
:105640000001be000800be0043f50700000f9800ef
:10565000110f98000200200003f823000e089000ac
:105660009e0890007af607000000e000cfff3d00a2
:105670000e0890009e08900079f6070002002000b6
:1056800003002c0091f507000e0990009e09900080
:10569000edf50700c9f60700000f9800110f9800fc
:1056a0000e0990009e0990004e009000de009000d0
:1056b00086f50700200f9800310f98000e09900022
:1056c0009e0990006e009000fe0090007ff507009c
:1056d000007d8800117d880010002000207d88005a
:1056e0002e019000be0190002e089000be08900090
:1056f00076f507001e01be0017f507004f04be0037
:105700000080fa00000006003400fa00889fbe0006
:105710008a9fbe00000f78001107980022079800aa
:10572000330798004407980055079800317d8000a2
:10573000800020000008b80062fe20000204400043
:1057400030808000418080001cf607001801be00f8
:105750005ef507000005be00317d8000800020005e
:105760000008b800a2fe2000020440003080800043
:105770004180800013f607001801be0053f50700b2
:105780000001be000a00be00f3f4070060079800a5
:1057900071079800317d8000800020000008b8006b
:1057a00062fe2000020040001000be000004be00a7
:1057b00009f0a200308080004180800001f60700df
:1057c0000001be000800be0040f507000005be0055
:1057d000317d8000800020000008b800a2fe20007b
:1057e000020440003080800041808000f3f5070013
:1057f0001801be0035f507000001be000a00be001a
:10580000d5f40700000f9800110f98000000200049
:10581000012a2400200f9800310f9800000020007a
:10582000011a2400400f9800510f98006000b80042
:10583000600f9800710f98006000b8000017980082
:10584000111798006011b8002e009000be00900063
:105850008ff607000000e00006003a006011b80073
:105860004e009000de00900089f607000000e00086
:10587000210032006e019000fe0190002e08900081
:10588000be08900011f507000004be002e01900034
:10589000be0190004e089000de0890000bf5070056
:1058a0000001be000800be00aaf40700600f9800c7
:1058b000710f98000e0990009e0990002e0890002c
:1058c000be08900001f507000004be004e019000e4
:1058d000de0190004e089000de089000fbf4070007
:1058e0000001be000800be009af4070000179800ef
:1058f000111798000e00370002002000c328240072
:105900006e009000fe009000f0f40700600f980019
:10591000710f980002002000c32824000e08900098
:105920009e089000e9f407000017980011179800ee
:105930006e089000fe0890006007980071079800bc
:105940000e1090009e109000000f9800110f98000c
:105950006e019000fe0190006e009000fe0090002d
:10596000daf407000004be000e0990009e099000c2
:105970000e0890009e089000d4f407000001be00bd
:105980000800be0074f407000cf60700201798000a
:10599000311798000e0990009e0990006e0090004b
:1059a000fe0090003cf6070001f0a20040179800ae
:1059b00051179800d2cc2c00c3e423002e10900085
:1059c000be109000c1f407000004be004e1090000d
:1059d000de10900079f507000001be000800be004f
:1059e000baf4070060179800711798004e109000e5
:1059f000de109000001f9800111f98001e04780010
:105a000042df2f0043d523000e1890009e1890000f
:105a1000aef4070002002000030024000af507008e
:105a20000001be006e109000fe10900049f40700c7
:105a30004206270083512400a4f4070063f5070001
:105a4000000c78001e04900042df2f0043d5230095
:105a50000e1890009e1890009cf407000200200091
:105a600003002400f8f407006e119000fe1190006e
:105a700039f40700420627008351240093f40700fd
:105a800052f50700000c7800013220001e0078005b
:105a900015fd0700013220001e00900012fd0700d6
:105aa0004f05be004f04be000080fa000000060053
:105ab0000200fa000000eb00000f78002000200038
:105ac0009e0f10001e003c00307d80009e0f1000d5
:105ad000190032009e007800400020000008b80045
:105ae000e2012100820040005081800091005000be
:105af00010032000808f5000080036009e007800c0
:105b0000400020000008b80002022100820040008e
:105b10000000eb0080087800070037009e00780046
:105b2000400020000008b80002022100820040006e
:105b300010002000800878001e0fe800dfff37000b
:105b40000080fa00000006004a00fa00889fbe00ac
:105b50006000b8006011b800200798003107980075
:105b600042079800530798006000b8006011b80021
:105b70006007980071079800020f9800130f9800b3
:105b80006000b8006011b800200f9800310f980035
:105b9000420f9800530f98006000b8006011b800e1
:105ba000600f9800710f9800021798001317980063
:105bb0006000b8006011b8002017980031179800f5
:105bc00042179800531798006000b80060179800bb
:105bd000711798000000eb00001f98000000eb0018
:105be000000f7800200020009e0f1000a3003c0052
:105bf000307d80009e0f10009e0032009e007800d5
:105c0000800020000008b800a2fa20000202400034
:105c10009e007800800020000008b800a3fa200051
:105c2000030040001001be001400be0027f407006e
:105c30000004be009e007800800020000008b8002c
:105c4000e2fa2000020240009e007800800020005e
:105c50000008b800e3fa2000030040001001be0075
:105c60001400be0019f407000001be000800be00c9
:105c7000b9f3070051f507006017980071179800f5
:105c800002002000032224006e109000fe109000fd
:105c9000f1f407000000e00076003d000000eb009a
:105ca000100798001e009000e10f500071003c00aa
:105cb0009e009000400020000008b800000047004f
:105cc0006c004000101f98009e00900040002000d3
